{"src/contracts/utils/YardFee.sol":{"YardFee":{"abi":[{"inputs":[{"internalType":"address","name":"_owner_","type":"address"},{"internalType":"uint256","name":"_fee","type":"uint256"}],"stateMutability":"nonpayable","type":"constructor"},{"anonymous":false,"inputs":[{"indexed":false,"internalType":"uint256","name":"_oldFee","type":"uint256"},{"indexed":false,"internalType":"uint256","name":"_newFee","type":"uint256"}],"name":"FeeChangeQueued","type":"event"},{"anonymous":false,"inputs":[{"indexed":false,"internalType":"uint256","name":"_oldFee","type":"uint256"},{"indexed":false,"internalType":"uint256","name":"_newFee","type":"uint256"}],"name":"FeeUpdated","type":"event"},{"anonymous":false,"inputs":[{"indexed":true,"internalType":"address","name":"previousOwner","type":"address"},{"indexed":true,"internalType":"address","name":"newOwner","type":"address"}],"name":"OwnershipTransferStarted","type":"event"},{"anonymous":false,"inputs":[{"indexed":true,"internalType":"address","name":"previousOwner","type":"address"},{"indexed":true,"internalType":"address","name":"newOwner","type":"address"}],"name":"OwnershipTransferred","type":"event"},{"inputs":[],"name":"acceptOwnership","outputs":[],"stateMutability":"nonpayable","type":"function"},{"inputs":[],"name":"deleteFee","outputs":[],"stateMutability":"nonpayable","type":"function"},{"inputs":[{"internalType":"uint256","name":"_fee","type":"uint256"}],"name":"feeIsSettable","outputs":[{"internalType":"bool","name":"","type":"bool"}],"stateMutability":"pure","type":"function"},{"inputs":[],"name":"getFee","outputs":[{"internalType":"uint256","name":"","type":"uint256"}],"stateMutability":"nonpayable","type":"function"},{"inputs":[],"name":"owner","outputs":[{"internalType":"address","name":"","type":"address"}],"stateMutability":"view","type":"function"},{"inputs":[],"name":"pendingOwner","outputs":[{"internalType":"address","name":"","type":"address"}],"stateMutability":"view","type":"function"},{"inputs":[{"internalType":"uint256","name":"_newFee","type":"uint256"}],"name":"queueFeeChange","outputs":[],"stateMutability":"nonpayable","type":"function"},{"inputs":[],"name":"renounceOwnership","outputs":[],"stateMutability":"nonpayable","type":"function"},{"inputs":[],"name":"swapFee","outputs":[{"internalType":"uint256","name":"","type":"uint256"}],"stateMutability":"view","type":"function"},{"inputs":[{"internalType":"address","name":"newOwner","type":"address"}],"name":"transferOwnership","outputs":[],"stateMutability":"nonpayable","type":"function"}],"evm":{"bytecode":{"linkReferences":{},"object":"608060405234801561001057600080fd5b5060405161086c38038061086c83398101604081905261002f9161018d565b61003833610051565b61004182610051565b61004a8161006d565b50506101c7565b600180546001600160a01b031916905561006a81610115565b50565b61007681610165565b6100c65760405162461bcd60e51b815260206004820152601c60248201527f594152443a204645455f49535f4e4f545f302e315f302e335f302e3500000000604482015260640160405180910390fd5b6005805460ff19169055600280549082905560408051828152602081018490527f528d9479e9f9889a87a3c30c7f7ba537e5e59c4c85a37733b16e57c62df61302910160405180910390a15050565b600080546001600160a01b038381166001600160a01b0319831681178455604051919092169283917f8be0079c531659141344cd1fd0a4f28419497f9722a3daafe3b4186f6b6457e09190a35050565b6000620186a082148061017a5750620493e082145b8061018757506207a12082145b92915050565b600080604083850312156101a057600080fd5b82516001600160a01b03811681146101b757600080fd5b6020939093015192949293505050565b610696806101d66000396000f3fe608060405234801561001057600080fd5b50600436106100be5760003560e01c8063984afcb811610076578063ced72f871161005b578063ced72f8714610154578063e30c39781461015c578063f2fde38b1461016d57600080fd5b8063984afcb81461011e578063ac40876a1461014157600080fd5b8063715018a6116100a7578063715018a6146100e957806379ba5097146100f15780638da5cb5b146100f957600080fd5b806348cc5d75146100c357806354cf2aeb146100cd575b600080fd5b6100cb610180565b005b6100d660025481565b6040519081526020015b60405180910390f35b6100cb610196565b6100cb6101a8565b6000546001600160a01b03165b6040516001600160a01b0390911681526020016100e0565b61013161012c3660046105dd565b61023b565b60405190151581526020016100e0565b6100cb61014f3660046105dd565b610263565b6100d66103a2565b6001546001600160a01b0316610106565b6100cb61017b3660046105f6565b6103de565b61018861045c565b610194620186a0610263565b565b61019e61045c565b61019460006104b6565b60015433906001600160a01b0316811461022f5760405162461bcd60e51b815260206004820152602960248201527f4f776e61626c6532537465703a2063616c6c6572206973206e6f74207468652060448201527f6e6577206f776e6572000000000000000000000000000000000000000000000060648201526084015b60405180910390fd5b610238816104b6565b50565b6000620186a08214806102505750620493e082145b8061025d57506207a12082145b92915050565b61026b61045c565b60055460ff16801561028d575062093a806004544261028a9190610626565b10155b1561029d5761029d6003546104dc565b60055460ff16156102f05760405162461bcd60e51b815260206004820152601960248201527f594152443a204645455f4348414e47455f494e5f5155455545000000000000006044820152606401610226565b6102f98161023b565b6103455760405162461bcd60e51b815260206004820152601c60248201527f594152443a204645455f49535f4e4f545f302e315f302e335f302e35000000006044820152606401610226565b6005805460ff191660011790556003819055426004556002546040517fe81e4b9d142d35939bd342374676e007019ea0c5cf310856dad8ea052227f56091610397918490918252602082015260400190565b60405180910390a150565b60055460009060ff1680156103c7575062093a80600454426103c49190610626565b10155b156103d7576103d76003546104dc565b5060025490565b6103e661045c565b600180546001600160a01b03831673ffffffffffffffffffffffffffffffffffffffff1990911681179091556104246000546001600160a01b031690565b6001600160a01b03167f38d16b8cac22d99fc7c124b9cd0de2d3fa1faef420bfe791d8c362d765e2270060405160405180910390a350565b6000546001600160a01b031633146101945760405162461bcd60e51b815260206004820181905260248201527f4f776e61626c653a2063616c6c6572206973206e6f7420746865206f776e65726044820152606401610226565b6001805473ffffffffffffffffffffffffffffffffffffffff1916905561023881610580565b6104e58161023b565b6105315760405162461bcd60e51b815260206004820152601c60248201527f594152443a204645455f49535f4e4f545f302e315f302e335f302e35000000006044820152606401610226565b6005805460ff19169055600280549082905560408051828152602081018490527f528d9479e9f9889a87a3c30c7f7ba537e5e59c4c85a37733b16e57c62df61302910160405180910390a15050565b600080546001600160a01b0383811673ffffffffffffffffffffffffffffffffffffffff19831681178455604051919092169283917f8be0079c531659141344cd1fd0a4f28419497f9722a3daafe3b4186f6b6457e09190a35050565b6000602082840312156105ef57600080fd5b5035919050565b60006020828403121561060857600080fd5b81356001600160a01b038116811461061f57600080fd5b9392505050565b8181038181111561025d577f4e487b7100000000000000000000000000000000000000000000000000000000600052601160045260246000fdfea26469706673582212208087e557f6b3c99b0447b7f78d4e62dcc2c480ba4bea1c04c9aa59bdd488a53d64736f6c63430008180033","opcodes":"PUSH1 0x80 PUSH1 0x40 MSTORE CALLVALUE DUP1 ISZERO PUSH2 0x10 JUMPI PUSH1 0x0 DUP1 REVERT JUMPDEST POP PUSH1 0x40 MLOAD PUSH2 0x86C CODESIZE SUB DUP1 PUSH2 0x86C DUP4 CODECOPY DUP2 ADD PUSH1 0x40 DUP2 SWAP1 MSTORE PUSH2 0x2F SWAP2 PUSH2 0x18D JUMP JUMPDEST PUSH2 0x38 CALLER PUSH2 0x51 JUMP JUMPDEST PUSH2 0x41 DUP3 PUSH2 0x51 JUMP JUMPDEST PUSH2 0x4A DUP2 PUSH2 0x6D JUMP JUMPDEST POP POP PUSH2 0x1C7 JUMP JUMPDEST PUSH1 0x1 DUP1 SLOAD PUSH1 0x1 PUSH1 0x1 PUSH1 0xA0 SHL SUB NOT AND SWAP1 SSTORE PUSH2 0x6A DUP2 PUSH2 0x115 JUMP JUMPDEST POP JUMP JUMPDEST PUSH2 0x76 DUP2 PUSH2 0x165 JUMP JUMPDEST PUSH2 0xC6 JUMPI PUSH1 0x40 MLOAD PUSH3 0x461BCD PUSH1 0xE5 SHL DUP2 MSTORE PUSH1 0x20 PUSH1 0x4 DUP3 ADD MSTORE PUSH1 0x1C PUSH1 0x24 DUP3 ADD MSTORE PUSH32 0x594152443A204645455F49535F4E4F545F302E315F302E335F302E3500000000 PUSH1 0x44 DUP3 ADD MSTORE PUSH1 0x64 ADD PUSH1 0x40 MLOAD DUP1 SWAP2 SUB SWAP1 REVERT JUMPDEST PUSH1 0x5 DUP1 SLOAD PUSH1 0xFF NOT AND SWAP1 SSTORE PUSH1 0x2 DUP1 SLOAD SWAP1 DUP3 SWAP1 SSTORE PUSH1 0x40 DUP1 MLOAD DUP3 DUP2 MSTORE PUSH1 0x20 DUP2 ADD DUP5 SWAP1 MSTORE PUSH32 0x528D9479E9F9889A87A3C30C7F7BA537E5E59C4C85A37733B16E57C62DF61302 SWAP2 ADD PUSH1 0x40 MLOAD DUP1 SWAP2 SUB SWAP1 LOG1 POP POP JUMP JUMPDEST PUSH1 0x0 DUP1 SLOAD PUSH1 0x1 PUSH1 0x1 PUSH1 0xA0 SHL SUB DUP4 DUP2 AND PUSH1 0x1 PUSH1 0x1 PUSH1 0xA0 SHL SUB NOT DUP4 AND DUP2 OR DUP5 SSTORE PUSH1 0x40 MLOAD SWAP2 SWAP1 SWAP3 AND SWAP3 DUP4 SWAP2 PUSH32 0x8BE0079C531659141344CD1FD0A4F28419497F9722A3DAAFE3B4186F6B6457E0 SWAP2 SWAP1 LOG3 POP POP JUMP JUMPDEST PUSH1 0x0 PUSH3 0x186A0 DUP3 EQ DUP1 PUSH2 0x17A JUMPI POP PUSH3 0x493E0 DUP3 EQ JUMPDEST DUP1 PUSH2 0x187 JUMPI POP PUSH3 0x7A120 DUP3 EQ JUMPDEST SWAP3 SWAP2 POP POP JUMP JUMPDEST PUSH1 0x0 DUP1 PUSH1 0x40 DUP4 DUP6 SUB SLT ISZERO PUSH2 0x1A0 JUMPI PUSH1 0x0 DUP1 REVERT JUMPDEST DUP3 MLOAD PUSH1 0x1 PUSH1 0x1 PUSH1 0xA0 SHL SUB DUP2 AND DUP2 EQ PUSH2 0x1B7 JUMPI PUSH1 0x0 DUP1 REVERT JUMPDEST PUSH1 0x20 SWAP4 SWAP1 SWAP4 ADD MLOAD SWAP3 SWAP5 SWAP3 SWAP4 POP POP POP JUMP JUMPDEST PUSH2 0x696 DUP1 PUSH2 0x1D6 PUSH1 0x0 CODECOPY PUSH1 0x0 RETURN INVALID PUSH1 0x80 PUSH1 0x40 MSTORE CALLVALUE DUP1 ISZERO PUSH2 0x10 JUMPI PUSH1 0x0 DUP1 REVERT JUMPDEST POP PUSH1 0x4 CALLDATASIZE LT PUSH2 0xBE JUMPI PUSH1 0x0 CALLDATALOAD PUSH1 0xE0 SHR DUP1 PUSH4 0x984AFCB8 GT PUSH2 0x76 JUMPI DUP1 PUSH4 0xCED72F87 GT PUSH2 0x5B JUMPI DUP1 PUSH4 0xCED72F87 EQ PUSH2 0x154 JUMPI DUP1 PUSH4 0xE30C3978 EQ PUSH2 0x15C JUMPI DUP1 PUSH4 0xF2FDE38B EQ PUSH2 0x16D JUMPI PUSH1 0x0 DUP1 REVERT JUMPDEST DUP1 PUSH4 0x984AFCB8 EQ PUSH2 0x11E JUMPI DUP1 PUSH4 0xAC40876A EQ PUSH2 0x141 JUMPI PUSH1 0x0 DUP1 REVERT JUMPDEST DUP1 PUSH4 0x715018A6 GT PUSH2 0xA7 JUMPI DUP1 PUSH4 0x715018A6 EQ PUSH2 0xE9 JUMPI DUP1 PUSH4 0x79BA5097 EQ PUSH2 0xF1 JUMPI DUP1 PUSH4 0x8DA5CB5B EQ PUSH2 0xF9 JUMPI PUSH1 0x0 DUP1 REVERT JUMPDEST DUP1 PUSH4 0x48CC5D75 EQ PUSH2 0xC3 JUMPI DUP1 PUSH4 0x54CF2AEB EQ PUSH2 0xCD JUMPI JUMPDEST PUSH1 0x0 DUP1 REVERT JUMPDEST PUSH2 0xCB PUSH2 0x180 JUMP JUMPDEST STOP JUMPDEST PUSH2 0xD6 PUSH1 0x2 SLOAD DUP2 JUMP JUMPDEST PUSH1 0x40 MLOAD SWAP1 DUP2 MSTORE PUSH1 0x20 ADD JUMPDEST PUSH1 0x40 MLOAD DUP1 SWAP2 SUB SWAP1 RETURN JUMPDEST PUSH2 0xCB PUSH2 0x196 JUMP JUMPDEST PUSH2 0xCB PUSH2 0x1A8 JUMP JUMPDEST PUSH1 0x0 SLOAD PUSH1 0x1 PUSH1 0x1 PUSH1 0xA0 SHL SUB AND JUMPDEST PUSH1 0x40 MLOAD PUSH1 0x1 PUSH1 0x1 PUSH1 0xA0 SHL SUB SWAP1 SWAP2 AND DUP2 MSTORE PUSH1 0x20 ADD PUSH2 0xE0 JUMP JUMPDEST PUSH2 0x131 PUSH2 0x12C CALLDATASIZE PUSH1 0x4 PUSH2 0x5DD JUMP JUMPDEST PUSH2 0x23B JUMP JUMPDEST PUSH1 0x40 MLOAD SWAP1 ISZERO ISZERO DUP2 MSTORE PUSH1 0x20 ADD PUSH2 0xE0 JUMP JUMPDEST PUSH2 0xCB PUSH2 0x14F CALLDATASIZE PUSH1 0x4 PUSH2 0x5DD JUMP JUMPDEST PUSH2 0x263 JUMP JUMPDEST PUSH2 0xD6 PUSH2 0x3A2 JUMP JUMPDEST PUSH1 0x1 SLOAD PUSH1 0x1 PUSH1 0x1 PUSH1 0xA0 SHL SUB AND PUSH2 0x106 JUMP JUMPDEST PUSH2 0xCB PUSH2 0x17B CALLDATASIZE PUSH1 0x4 PUSH2 0x5F6 JUMP JUMPDEST PUSH2 0x3DE JUMP JUMPDEST PUSH2 0x188 PUSH2 0x45C JUMP JUMPDEST PUSH2 0x194 PUSH3 0x186A0 PUSH2 0x263 JUMP JUMPDEST JUMP JUMPDEST PUSH2 0x19E PUSH2 0x45C JUMP JUMPDEST PUSH2 0x194 PUSH1 0x0 PUSH2 0x4B6 JUMP JUMPDEST PUSH1 0x1 SLOAD CALLER SWAP1 PUSH1 0x1 PUSH1 0x1 PUSH1 0xA0 SHL SUB AND DUP2 EQ PUSH2 0x22F JUMPI PUSH1 0x40 MLOAD PUSH3 0x461BCD PUSH1 0xE5 SHL DUP2 MSTORE PUSH1 0x20 PUSH1 0x4 DUP3 ADD MSTORE PUSH1 0x29 PUSH1 0x24 DUP3 ADD MSTORE PUSH32 0x4F776E61626C6532537465703A2063616C6C6572206973206E6F742074686520 PUSH1 0x44 DUP3 ADD MSTORE PUSH32 0x6E6577206F776E65720000000000000000000000000000000000000000000000 PUSH1 0x64 DUP3 ADD MSTORE PUSH1 0x84 ADD JUMPDEST PUSH1 0x40 MLOAD DUP1 SWAP2 SUB SWAP1 REVERT JUMPDEST PUSH2 0x238 DUP2 PUSH2 0x4B6 JUMP JUMPDEST POP JUMP JUMPDEST PUSH1 0x0 PUSH3 0x186A0 DUP3 EQ DUP1 PUSH2 0x250 JUMPI POP PUSH3 0x493E0 DUP3 EQ JUMPDEST DUP1 PUSH2 0x25D JUMPI POP PUSH3 0x7A120 DUP3 EQ JUMPDEST SWAP3 SWAP2 POP POP JUMP JUMPDEST PUSH2 0x26B PUSH2 0x45C JUMP JUMPDEST PUSH1 0x5 SLOAD PUSH1 0xFF AND DUP1 ISZERO PUSH2 0x28D JUMPI POP PUSH3 0x93A80 PUSH1 0x4 SLOAD TIMESTAMP PUSH2 0x28A SWAP2 SWAP1 PUSH2 0x626 JUMP JUMPDEST LT ISZERO JUMPDEST ISZERO PUSH2 0x29D JUMPI PUSH2 0x29D PUSH1 0x3 SLOAD PUSH2 0x4DC JUMP JUMPDEST PUSH1 0x5 SLOAD PUSH1 0xFF AND ISZERO PUSH2 0x2F0 JUMPI PUSH1 0x40 MLOAD PUSH3 0x461BCD PUSH1 0xE5 SHL DUP2 MSTORE PUSH1 0x20 PUSH1 0x4 DUP3 ADD MSTORE PUSH1 0x19 PUSH1 0x24 DUP3 ADD MSTORE PUSH32 0x594152443A204645455F4348414E47455F494E5F515545554500000000000000 PUSH1 0x44 DUP3 ADD MSTORE PUSH1 0x64 ADD PUSH2 0x226 JUMP JUMPDEST PUSH2 0x2F9 DUP2 PUSH2 0x23B JUMP JUMPDEST PUSH2 0x345 JUMPI PUSH1 0x40 MLOAD PUSH3 0x461BCD PUSH1 0xE5 SHL DUP2 MSTORE PUSH1 0x20 PUSH1 0x4 DUP3 ADD MSTORE PUSH1 0x1C PUSH1 0x24 DUP3 ADD MSTORE PUSH32 0x594152443A204645455F49535F4E4F545F302E315F302E335F302E3500000000 PUSH1 0x44 DUP3 ADD MSTORE PUSH1 0x64 ADD PUSH2 0x226 JUMP JUMPDEST PUSH1 0x5 DUP1 SLOAD PUSH1 0xFF NOT AND PUSH1 0x1 OR SWAP1 SSTORE PUSH1 0x3 DUP2 SWAP1 SSTORE TIMESTAMP PUSH1 0x4 SSTORE PUSH1 0x2 SLOAD PUSH1 0x40 MLOAD PUSH32 0xE81E4B9D142D35939BD342374676E007019EA0C5CF310856DAD8EA052227F560 SWAP2 PUSH2 0x397 SWAP2 DUP5 SWAP1 SWAP2 DUP3 MSTORE PUSH1 0x20 DUP3 ADD MSTORE PUSH1 0x40 ADD SWAP1 JUMP JUMPDEST PUSH1 0x40 MLOAD DUP1 SWAP2 SUB SWAP1 LOG1 POP JUMP JUMPDEST PUSH1 0x5 SLOAD PUSH1 0x0 SWAP1 PUSH1 0xFF AND DUP1 ISZERO PUSH2 0x3C7 JUMPI POP PUSH3 0x93A80 PUSH1 0x4 SLOAD TIMESTAMP PUSH2 0x3C4 SWAP2 SWAP1 PUSH2 0x626 JUMP JUMPDEST LT ISZERO JUMPDEST ISZERO PUSH2 0x3D7 JUMPI PUSH2 0x3D7 PUSH1 0x3 SLOAD PUSH2 0x4DC JUMP JUMPDEST POP PUSH1 0x2 SLOAD SWAP1 JUMP JUMPDEST PUSH2 0x3E6 PUSH2 0x45C JUMP JUMPDEST PUSH1 0x1 DUP1 SLOAD PUSH1 0x1 PUSH1 0x1 PUSH1 0xA0 SHL SUB DUP4 AND PUSH20 0xFFFFFFFFFFFFFFFFFFFFFFFFFFFFFFFFFFFFFFFF NOT SWAP1 SWAP2 AND DUP2 OR SWAP1 SWAP2 SSTORE PUSH2 0x424 PUSH1 0x0 SLOAD PUSH1 0x1 PUSH1 0x1 PUSH1 0xA0 SHL SUB AND SWAP1 JUMP JUMPDEST PUSH1 0x1 PUSH1 0x1 PUSH1 0xA0 SHL SUB AND PUSH32 0x38D16B8CAC22D99FC7C124B9CD0DE2D3FA1FAEF420BFE791D8C362D765E22700 PUSH1 0x40 MLOAD PUSH1 0x40 MLOAD DUP1 SWAP2 SUB SWAP1 LOG3 POP JUMP JUMPDEST PUSH1 0x0 SLOAD PUSH1 0x1 PUSH1 0x1 PUSH1 0xA0 SHL SUB AND CALLER EQ PUSH2 0x194 JUMPI PUSH1 0x40 MLOAD PUSH3 0x461BCD PUSH1 0xE5 SHL DUP2 MSTORE PUSH1 0x20 PUSH1 0x4 DUP3 ADD DUP2 SWAP1 MSTORE PUSH1 0x24 DUP3 ADD MSTORE PUSH32 0x4F776E61626C653A2063616C6C6572206973206E6F7420746865206F776E6572 PUSH1 0x44 DUP3 ADD MSTORE PUSH1 0x64 ADD PUSH2 0x226 JUMP JUMPDEST PUSH1 0x1 DUP1 SLOAD PUSH20 0xFFFFFFFFFFFFFFFFFFFFFFFFFFFFFFFFFFFFFFFF NOT AND SWAP1 SSTORE PUSH2 0x238 DUP2 PUSH2 0x580 JUMP JUMPDEST PUSH2 0x4E5 DUP2 PUSH2 0x23B JUMP JUMPDEST PUSH2 0x531 JUMPI PUSH1 0x40 MLOAD PUSH3 0x461BCD PUSH1 0xE5 SHL DUP2 MSTORE PUSH1 0x20 PUSH1 0x4 DUP3 ADD MSTORE PUSH1 0x1C PUSH1 0x24 DUP3 ADD MSTORE PUSH32 0x594152443A204645455F49535F4E4F545F302E315F302E335F302E3500000000 PUSH1 0x44 DUP3 ADD MSTORE PUSH1 0x64 ADD PUSH2 0x226 JUMP JUMPDEST PUSH1 0x5 DUP1 SLOAD PUSH1 0xFF NOT AND SWAP1 SSTORE PUSH1 0x2 DUP1 SLOAD SWAP1 DUP3 SWAP1 SSTORE PUSH1 0x40 DUP1 MLOAD DUP3 DUP2 MSTORE PUSH1 0x20 DUP2 ADD DUP5 SWAP1 MSTORE PUSH32 0x528D9479E9F9889A87A3C30C7F7BA537E5E59C4C85A37733B16E57C62DF61302 SWAP2 ADD PUSH1 0x40 MLOAD DUP1 SWAP2 SUB SWAP1 LOG1 POP POP JUMP JUMPDEST PUSH1 0x0 DUP1 SLOAD PUSH1 0x1 PUSH1 0x1 PUSH1 0xA0 SHL SUB DUP4 DUP2 AND PUSH20 0xFFFFFFFFFFFFFFFFFFFFFFFFFFFFFFFFFFFFFFFF NOT DUP4 AND DUP2 OR DUP5 SSTORE PUSH1 0x40 MLOAD SWAP2 SWAP1 SWAP3 AND SWAP3 DUP4 SWAP2 PUSH32 0x8BE0079C531659141344CD1FD0A4F28419497F9722A3DAAFE3B4186F6B6457E0 SWAP2 SWAP1 LOG3 POP POP JUMP JUMPDEST PUSH1 0x0 PUSH1 0x20 DUP3 DUP5 SUB SLT ISZERO PUSH2 0x5EF JUMPI PUSH1 0x0 DUP1 REVERT JUMPDEST POP CALLDATALOAD SWAP2 SWAP1 POP JUMP JUMPDEST PUSH1 0x0 PUSH1 0x20 DUP3 DUP5 SUB SLT ISZERO PUSH2 0x608 JUMPI PUSH1 0x0 DUP1 REVERT JUMPDEST DUP2 CALLDATALOAD PUSH1 0x1 PUSH1 0x1 PUSH1 0xA0 SHL SUB DUP2 AND DUP2 EQ PUSH2 0x61F JUMPI PUSH1 0x0 DUP1 REVERT JUMPDEST SWAP4 SWAP3 POP POP POP JUMP JUMPDEST DUP2 DUP2 SUB DUP2 DUP2 GT ISZERO PUSH2 0x25D JUMPI PUSH32 0x4E487B7100000000000000000000000000000000000000000000000000000000 PUSH1 0x0 MSTORE PUSH1 0x11 PUSH1 0x4 MSTORE PUSH1 0x24 PUSH1 0x0 REVERT INVALID LOG2 PUSH5 0x6970667358 0x22 SLT KECCAK256 DUP1 DUP8 0xE5 JUMPI 0xF6 0xB3 0xC9 SWAP12 DIV SELFBALANCE 0xB7 0xF7 DUP14 0x4E PUSH3 0xDCC2C4 DUP1 0xBA 0x4B 0xEA SHR DIV 0xC9 0xAA MSIZE 0xBD 0xD4 DUP9 0xA5 RETURNDATASIZE PUSH5 0x736F6C6343 STOP ADDMOD XOR STOP CALLER "},"methodIdentifiers":{"acceptOwnership()":"79ba5097","deleteFee()":"48cc5d75","feeIsSettable(uint256)":"984afcb8","getFee()":"ced72f87","owner()":"8da5cb5b","pendingOwner()":"e30c3978","queueFeeChange(uint256)":"ac40876a","renounceOwnership()":"715018a6","swapFee()":"54cf2aeb","transferOwnership(address)":"f2fde38b"}}}}}