{
  "_format": "hh-sol-artifact-1",
  "contractName": "YardNFTWrapper",
  "sourceName": "src/contracts/utils/YardNFTWrapper.sol",
  "abi": [
    {
      "inputs": [],
      "stateMutability": "nonpayable",
      "type": "constructor"
    },
    {
      "anonymous": false,
      "inputs": [
        {
          "indexed": true,
          "internalType": "address",
          "name": "owner",
          "type": "address"
        },
        {
          "indexed": true,
          "internalType": "address",
          "name": "approved",
          "type": "address"
        },
        {
          "indexed": true,
          "internalType": "uint256",
          "name": "tokenId",
          "type": "uint256"
        }
      ],
      "name": "Approval",
      "type": "event"
    },
    {
      "anonymous": false,
      "inputs": [
        {
          "indexed": true,
          "internalType": "address",
          "name": "owner",
          "type": "address"
        },
        {
          "indexed": true,
          "internalType": "address",
          "name": "operator",
          "type": "address"
        },
        {
          "indexed": false,
          "internalType": "bool",
          "name": "approved",
          "type": "bool"
        }
      ],
      "name": "ApprovalForAll",
      "type": "event"
    },
    {
      "anonymous": false,
      "inputs": [
        {
          "indexed": true,
          "internalType": "address",
          "name": "previousOwner",
          "type": "address"
        },
        {
          "indexed": true,
          "internalType": "address",
          "name": "newOwner",
          "type": "address"
        }
      ],
      "name": "OwnershipTransferStarted",
      "type": "event"
    },
    {
      "anonymous": false,
      "inputs": [
        {
          "indexed": true,
          "internalType": "address",
          "name": "previousOwner",
          "type": "address"
        },
        {
          "indexed": true,
          "internalType": "address",
          "name": "newOwner",
          "type": "address"
        }
      ],
      "name": "OwnershipTransferred",
      "type": "event"
    },
    {
      "anonymous": false,
      "inputs": [
        {
          "indexed": true,
          "internalType": "address",
          "name": "from",
          "type": "address"
        },
        {
          "indexed": true,
          "internalType": "address",
          "name": "to",
          "type": "address"
        },
        {
          "indexed": true,
          "internalType": "uint256",
          "name": "tokenId",
          "type": "uint256"
        }
      ],
      "name": "Transfer",
      "type": "event"
    },
    {
      "anonymous": false,
      "inputs": [
        {
          "indexed": true,
          "internalType": "uint256",
          "name": "id",
          "type": "uint256"
        }
      ],
      "name": "Unwrapped",
      "type": "event"
    },
    {
      "anonymous": false,
      "inputs": [
        {
          "indexed": true,
          "internalType": "uint256",
          "name": "id",
          "type": "uint256"
        },
        {
          "indexed": true,
          "internalType": "address",
          "name": "to",
          "type": "address"
        }
      ],
      "name": "Wrapped",
      "type": "event"
    },
    {
      "inputs": [],
      "name": "acceptOwnership",
      "outputs": [],
      "stateMutability": "nonpayable",
      "type": "function"
    },
    {
      "inputs": [
        {
          "internalType": "address",
          "name": "_pair",
          "type": "address"
        }
      ],
      "name": "addPair",
      "outputs": [],
      "stateMutability": "nonpayable",
      "type": "function"
    },
    {
      "inputs": [
        {
          "internalType": "address",
          "name": "pair",
          "type": "address"
        }
      ],
      "name": "allowedPairs",
      "outputs": [
        {
          "internalType": "bool",
          "name": "isAllowed",
          "type": "bool"
        }
      ],
      "stateMutability": "view",
      "type": "function"
    },
    {
      "inputs": [
        {
          "internalType": "address",
          "name": "to",
          "type": "address"
        },
        {
          "internalType": "uint256",
          "name": "id",
          "type": "uint256"
        }
      ],
      "name": "approve",
      "outputs": [],
      "stateMutability": "nonpayable",
      "type": "function"
    },
    {
      "inputs": [
        {
          "internalType": "address",
          "name": "owner",
          "type": "address"
        }
      ],
      "name": "balanceOf",
      "outputs": [
        {
          "internalType": "uint256",
          "name": "",
          "type": "uint256"
        }
      ],
      "stateMutability": "view",
      "type": "function"
    },
    {
      "inputs": [],
      "name": "factory",
      "outputs": [
        {
          "internalType": "address",
          "name": "",
          "type": "address"
        }
      ],
      "stateMutability": "view",
      "type": "function"
    },
    {
      "inputs": [
        {
          "internalType": "uint256",
          "name": "tokenId",
          "type": "uint256"
        }
      ],
      "name": "getApproved",
      "outputs": [
        {
          "internalType": "address",
          "name": "",
          "type": "address"
        }
      ],
      "stateMutability": "view",
      "type": "function"
    },
    {
      "inputs": [
        {
          "internalType": "address",
          "name": "owner",
          "type": "address"
        },
        {
          "internalType": "address",
          "name": "operator",
          "type": "address"
        }
      ],
      "name": "isApprovedForAll",
      "outputs": [
        {
          "internalType": "bool",
          "name": "",
          "type": "bool"
        }
      ],
      "stateMutability": "view",
      "type": "function"
    },
    {
      "inputs": [
        {
          "internalType": "uint256",
          "name": "id",
          "type": "uint256"
        }
      ],
      "name": "isReleased",
      "outputs": [
        {
          "internalType": "bool",
          "name": "",
          "type": "bool"
        }
      ],
      "stateMutability": "view",
      "type": "function"
    },
    {
      "inputs": [],
      "name": "name",
      "outputs": [
        {
          "internalType": "string",
          "name": "",
          "type": "string"
        }
      ],
      "stateMutability": "view",
      "type": "function"
    },
    {
      "inputs": [
        {
          "internalType": "uint256",
          "name": "id",
          "type": "uint256"
        }
      ],
      "name": "nftReleasedStatus",
      "outputs": [
        {
          "internalType": "bool",
          "name": "isReleased",
          "type": "bool"
        }
      ],
      "stateMutability": "view",
      "type": "function"
    },
    {
      "inputs": [],
      "name": "owner",
      "outputs": [
        {
          "internalType": "address",
          "name": "",
          "type": "address"
        }
      ],
      "stateMutability": "view",
      "type": "function"
    },
    {
      "inputs": [
        {
          "internalType": "uint256",
          "name": "tokenId",
          "type": "uint256"
        }
      ],
      "name": "ownerOf",
      "outputs": [
        {
          "internalType": "address",
          "name": "",
          "type": "address"
        }
      ],
      "stateMutability": "view",
      "type": "function"
    },
    {
      "inputs": [],
      "name": "pendingOwner",
      "outputs": [
        {
          "internalType": "address",
          "name": "",
          "type": "address"
        }
      ],
      "stateMutability": "view",
      "type": "function"
    },
    {
      "inputs": [
        {
          "internalType": "uint256",
          "name": "id",
          "type": "uint256"
        }
      ],
      "name": "release",
      "outputs": [],
      "stateMutability": "nonpayable",
      "type": "function"
    },
    {
      "inputs": [],
      "name": "renounceOwnership",
      "outputs": [],
      "stateMutability": "nonpayable",
      "type": "function"
    },
    {
      "inputs": [
        {
          "internalType": "address",
          "name": "from",
          "type": "address"
        },
        {
          "internalType": "address",
          "name": "to",
          "type": "address"
        },
        {
          "internalType": "uint256",
          "name": "id",
          "type": "uint256"
        }
      ],
      "name": "safeTransferFrom",
      "outputs": [],
      "stateMutability": "nonpayable",
      "type": "function"
    },
    {
      "inputs": [
        {
          "internalType": "address",
          "name": "from",
          "type": "address"
        },
        {
          "internalType": "address",
          "name": "to",
          "type": "address"
        },
        {
          "internalType": "uint256",
          "name": "tokenId",
          "type": "uint256"
        },
        {
          "internalType": "bytes",
          "name": "data",
          "type": "bytes"
        }
      ],
      "name": "safeTransferFrom",
      "outputs": [],
      "stateMutability": "nonpayable",
      "type": "function"
    },
    {
      "inputs": [
        {
          "internalType": "address",
          "name": "operator",
          "type": "address"
        },
        {
          "internalType": "bool",
          "name": "approved",
          "type": "bool"
        }
      ],
      "name": "setApprovalForAll",
      "outputs": [],
      "stateMutability": "nonpayable",
      "type": "function"
    },
    {
      "inputs": [
        {
          "internalType": "address",
          "name": "_factory",
          "type": "address"
        }
      ],
      "name": "setFactory",
      "outputs": [],
      "stateMutability": "nonpayable",
      "type": "function"
    },
    {
      "inputs": [
        {
          "internalType": "bytes4",
          "name": "interfaceId",
          "type": "bytes4"
        }
      ],
      "name": "supportsInterface",
      "outputs": [
        {
          "internalType": "bool",
          "name": "",
          "type": "bool"
        }
      ],
      "stateMutability": "view",
      "type": "function"
    },
    {
      "inputs": [],
      "name": "symbol",
      "outputs": [
        {
          "internalType": "string",
          "name": "",
          "type": "string"
        }
      ],
      "stateMutability": "view",
      "type": "function"
    },
    {
      "inputs": [
        {
          "internalType": "uint256",
          "name": "id",
          "type": "uint256"
        }
      ],
      "name": "tokenURI",
      "outputs": [
        {
          "internalType": "string",
          "name": "",
          "type": "string"
        }
      ],
      "stateMutability": "view",
      "type": "function"
    },
    {
      "inputs": [
        {
          "internalType": "uint256",
          "name": "id",
          "type": "uint256"
        }
      ],
      "name": "tokenURIs",
      "outputs": [
        {
          "internalType": "string",
          "name": "URI",
          "type": "string"
        }
      ],
      "stateMutability": "view",
      "type": "function"
    },
    {
      "inputs": [
        {
          "internalType": "address",
          "name": "from",
          "type": "address"
        },
        {
          "internalType": "address",
          "name": "to",
          "type": "address"
        },
        {
          "internalType": "uint256",
          "name": "id",
          "type": "uint256"
        }
      ],
      "name": "transferFrom",
      "outputs": [],
      "stateMutability": "nonpayable",
      "type": "function"
    },
    {
      "inputs": [
        {
          "internalType": "address",
          "name": "newOwner",
          "type": "address"
        }
      ],
      "name": "transferOwnership",
      "outputs": [],
      "stateMutability": "nonpayable",
      "type": "function"
    },
    {
      "inputs": [
        {
          "internalType": "uint256",
          "name": "id",
          "type": "uint256"
        }
      ],
      "name": "unwrap",
      "outputs": [
        {
          "internalType": "bool",
          "name": "",
          "type": "bool"
        }
      ],
      "stateMutability": "nonpayable",
      "type": "function"
    },
    {
      "inputs": [
        {
          "internalType": "contract IERC721",
          "name": "nft",
          "type": "address"
        },
        {
          "internalType": "uint256",
          "name": "id",
          "type": "uint256"
        },
        {
          "internalType": "address",
          "name": "to",
          "type": "address"
        }
      ],
      "name": "wrap",
      "outputs": [
        {
          "internalType": "uint256",
          "name": "",
          "type": "uint256"
        }
      ],
      "stateMutability": "nonpayable",
      "type": "function"
    }
  ],
  "bytecode": "0x60806040523480156200001157600080fd5b506040518060400160405280601081526020016f15dc985c1c19590816585c990813919560821b8152506040518060400160405280600581526020016415de53919560da1b81525081600090816200006a9190620001b7565b506001620000798282620001b7565b50505062000096620000906200009c60201b60201c565b620000a0565b62000283565b3390565b600780546001600160a01b0319169055620000bb81620000be565b50565b600680546001600160a01b038381166001600160a01b0319831681179093556040519116919082907f8be0079c531659141344cd1fd0a4f28419497f9722a3daafe3b4186f6b6457e090600090a35050565b634e487b7160e01b600052604160045260246000fd5b600181811c908216806200013b57607f821691505b6020821081036200015c57634e487b7160e01b600052602260045260246000fd5b50919050565b601f821115620001b2576000816000526020600020601f850160051c810160208610156200018d5750805b601f850160051c820191505b81811015620001ae5782815560010162000199565b5050505b505050565b81516001600160401b03811115620001d357620001d362000110565b620001eb81620001e4845462000126565b8462000162565b602080601f8311600181146200022357600084156200020a5750858301515b600019600386901b1c1916600185901b178555620001ae565b600085815260208120601f198616915b82811015620002545788860151825594840194600190910190840162000233565b5085821015620002735787850151600019600388901b60f8161c191681555b5050505050600190811b01905550565b611f2280620002936000396000f3fe608060405234801561001057600080fd5b50600436106101c45760003560e01c806373962b26116100f9578063c45a015511610097578063de0e9a3e11610071578063de0e9a3e146103dd578063e30c3978146103f0578063e985e9c514610401578063f2fde38b1461043d57600080fd5b8063c45a015514610394578063c87b56dd146103a7578063d30af7ff146103ba57600080fd5b806395d89b41116100d357806395d89b4114610353578063a22cb4651461035b578063b88d4fde1461036e578063c2b7bbb61461038157600080fd5b806373962b261461031757806379ba50971461033a5780638da5cb5b1461034257600080fd5b80635bb47808116101665780636c8b703f116101405780636c8b703f146102c657806370864fab146102d957806370a08231146102fc578063715018a61461030f57600080fd5b80635bb478081461027f5780635c15155e146102925780636352211e146102b357600080fd5b8063095ea7b3116101a2578063095ea7b31461023157806323b872dd1461024657806337bdc99b1461025957806342842e0e1461026c57600080fd5b806301ffc9a7146101c957806306fdde03146101f1578063081812fc14610206575b600080fd5b6101dc6101d73660046119a0565b610450565b60405190151581526020015b60405180910390f35b6101f96104ed565b6040516101e89190611a14565b610219610214366004611a27565b61057f565b6040516001600160a01b0390911681526020016101e8565b61024461023f366004611a55565b6105a6565b005b610244610254366004611a81565b61061a565b610244610267366004611a27565b61068b565b61024461027a366004611a81565b610705565b61024461028d366004611ac2565b610780565b6102a56102a0366004611adf565b610859565b6040519081526020016101e8565b6102196102c1366004611a27565b6109b7565b6101f96102d4366004611a27565b610a1c565b6101dc6102e7366004611a27565b600b6020526000908152604090205460ff1681565b6102a561030a366004611ac2565b610ab6565b610244610b50565b6101dc610325366004611a27565b6000908152600b602052604090205460ff1690565b610244610b64565b6006546001600160a01b0316610219565b6101f9610bf2565b610244610369366004611b21565b610c01565b61024461037c366004611bce565b610c10565b61024461038f366004611ac2565b610c88565b600954610219906001600160a01b031681565b6101f96103b5366004611a27565b610d5c565b6101dc6103c8366004611ac2565b600c6020526000908152604090205460ff1681565b6101dc6103eb366004611a27565b610dfe565b6007546001600160a01b0316610219565b6101dc61040f366004611c7d565b6001600160a01b03918216600090815260056020908152604080832093909416825291909152205460ff1690565b61024461044b366004611ac2565b610e99565b60006001600160e01b031982167f80ac58cd0000000000000000000000000000000000000000000000000000000014806104b357506001600160e01b031982167f5b5e139f00000000000000000000000000000000000000000000000000000000145b806104e757507f01ffc9a7000000000000000000000000000000000000000000000000000000006001600160e01b03198316145b92915050565b6060600080546104fc90611cab565b80601f016020809104026020016040519081016040528092919081815260200182805461052890611cab565b80156105755780601f1061054a57610100808354040283529160200191610575565b820191906000526020600020905b81548152906001019060200180831161055857829003601f168201915b5050505050905090565b600061058a82610f0a565b506000908152600460205260409020546001600160a01b031690565b6000818152600b6020526040902054819060ff1661060b5760405162461bcd60e51b815260206004820152601360248201527f594152443a204f4e4c595f52454c45415345440000000000000000000000000060448201526064015b60405180910390fd5b6106158383610f6e565b505050565b6000818152600b6020526040902054819060ff1661067a5760405162461bcd60e51b815260206004820152601360248201527f594152443a204f4e4c595f52454c4541534544000000000000000000000000006044820152606401610602565b61068584848461109a565b50505050565b336000908152600c602052604090205460ff166106ea5760405162461bcd60e51b815260206004820152601860248201527f594152443a204f4e4c595f414c4c4f5745445f504149525300000000000000006044820152606401610602565b6000908152600b60205260409020805460ff19166001179055565b6000818152600b6020526040902054819060ff166107655760405162461bcd60e51b815260206004820152601360248201527f594152443a204f4e4c595f52454c4541534544000000000000000000000000006044820152606401610602565b61068584848460405180602001604052806000815250610c10565b610788611111565b6009546001600160a01b0316156107e15760405162461bcd60e51b815260206004820152601160248201527f594152443a20464143544f52595f5345540000000000000000000000000000006044820152606401610602565b6001600160a01b0381166108375760405162461bcd60e51b815260206004820152601560248201527f594152443a20494e56414c49445f4144445245535300000000000000000000006044820152606401610602565b600980546001600160a01b0319166001600160a01b0392909216919091179055565b336000908152600c602052604081205460ff166108b85760405162461bcd60e51b815260206004820152601860248201527f594152443a204f4e4c595f414c4c4f5745445f504149525300000000000000006044820152606401610602565b6008805490819060006108ca83611ce5565b90915550506040517fc87b56dd000000000000000000000000000000000000000000000000000000008152600481018590526001600160a01b0386169063c87b56dd90602401600060405180830381865afa15801561092d573d6000803e3d6000fd5b505050506040513d6000823e601f3d908101601f191682016040526109559190810190611d0c565b6000828152600a602052604090209061096e9082611dd3565b50610979838261116b565b6040516001600160a01b0384169082907f9c307a39a47fdf1a019642a4e8a585ffe9894b5018226029887fe6d4241611bb90600090a3949350505050565b6000818152600260205260408120546001600160a01b0316806104e75760405162461bcd60e51b815260206004820152601860248201527f4552433732313a20696e76616c696420746f6b656e20494400000000000000006044820152606401610602565b600a6020526000908152604090208054610a3590611cab565b80601f0160208091040260200160405190810160405280929190818152602001828054610a6190611cab565b8015610aae5780601f10610a8357610100808354040283529160200191610aae565b820191906000526020600020905b815481529060010190602001808311610a9157829003601f168201915b505050505081565b60006001600160a01b038216610b345760405162461bcd60e51b815260206004820152602960248201527f4552433732313a2061646472657373207a65726f206973206e6f74206120766160448201527f6c6964206f776e657200000000000000000000000000000000000000000000006064820152608401610602565b506001600160a01b031660009081526003602052604090205490565b610b58611111565b610b6260006112f6565b565b60075433906001600160a01b03168114610be65760405162461bcd60e51b815260206004820152602960248201527f4f776e61626c6532537465703a2063616c6c6572206973206e6f74207468652060448201527f6e6577206f776e657200000000000000000000000000000000000000000000006064820152608401610602565b610bef816112f6565b50565b6060600180546104fc90611cab565b610c0c33838361130f565b5050565b610c1a33836113dd565b610c7c5760405162461bcd60e51b815260206004820152602d60248201527f4552433732313a2063616c6c6572206973206e6f7420746f6b656e206f776e6560448201526c1c881bdc88185c1c1c9bdd9959609a1b6064820152608401610602565b6106858484848461145c565b6009546001600160a01b03163314610ce25760405162461bcd60e51b815260206004820152601260248201527f594152443a204f4e4c595f464143544f525900000000000000000000000000006044820152606401610602565b6001600160a01b038116610d385760405162461bcd60e51b815260206004820152601560248201527f594152443a20494e56414c49445f4144445245535300000000000000000000006044820152606401610602565b6001600160a01b03166000908152600c60205260409020805460ff19166001179055565b6000818152600a60205260409020805460609190610d7990611cab565b80601f0160208091040260200160405190810160405280929190818152602001828054610da590611cab565b8015610df25780601f10610dc757610100808354040283529160200191610df2565b820191906000526020600020905b815481529060010190602001808311610dd557829003601f168201915b50505050509050919050565b336000908152600c602052604081205460ff16610e5d5760405162461bcd60e51b815260206004820152601860248201527f594152443a204f4e4c595f414c4c4f5745445f504149525300000000000000006044820152606401610602565b610e66826114e5565b60405182907fbeaa92c6354c6dcf375d2c514352b2c11bc865784722e5dd9b267e606eb5fc5f90600090a2506001919050565b610ea1611111565b600780546001600160a01b0383166001600160a01b03199091168117909155610ed26006546001600160a01b031690565b6001600160a01b03167f38d16b8cac22d99fc7c124b9cd0de2d3fa1faef420bfe791d8c362d765e2270060405160405180910390a350565b6000818152600260205260409020546001600160a01b0316610bef5760405162461bcd60e51b815260206004820152601860248201527f4552433732313a20696e76616c696420746f6b656e20494400000000000000006044820152606401610602565b6000610f79826109b7565b9050806001600160a01b0316836001600160a01b0316036110025760405162461bcd60e51b815260206004820152602160248201527f4552433732313a20617070726f76616c20746f2063757272656e74206f776e6560448201527f72000000000000000000000000000000000000000000000000000000000000006064820152608401610602565b336001600160a01b038216148061101e575061101e813361040f565b6110905760405162461bcd60e51b815260206004820152603d60248201527f4552433732313a20617070726f76652063616c6c6572206973206e6f7420746f60448201527f6b656e206f776e6572206f7220617070726f76656420666f7220616c6c0000006064820152608401610602565b610615838361157a565b6110a433826113dd565b6111065760405162461bcd60e51b815260206004820152602d60248201527f4552433732313a2063616c6c6572206973206e6f7420746f6b656e206f776e6560448201526c1c881bdc88185c1c1c9bdd9959609a1b6064820152608401610602565b6106158383836115e8565b6006546001600160a01b03163314610b625760405162461bcd60e51b815260206004820181905260248201527f4f776e61626c653a2063616c6c6572206973206e6f7420746865206f776e65726044820152606401610602565b6001600160a01b0382166111c15760405162461bcd60e51b815260206004820181905260248201527f4552433732313a206d696e7420746f20746865207a65726f20616464726573736044820152606401610602565b6000818152600260205260409020546001600160a01b0316156112265760405162461bcd60e51b815260206004820152601c60248201527f4552433732313a20746f6b656e20616c7265616479206d696e746564000000006044820152606401610602565b6000818152600260205260409020546001600160a01b03161561128b5760405162461bcd60e51b815260206004820152601c60248201527f4552433732313a20746f6b656e20616c7265616479206d696e746564000000006044820152606401610602565b6001600160a01b038216600081815260036020908152604080832080546001019055848352600290915280822080546001600160a01b0319168417905551839291907fddf252ad1be2c89b69c2b068fc378daa952ba7f163c4a11628f55a4df523b3ef908290a45050565b600780546001600160a01b0319169055610bef816117e1565b816001600160a01b0316836001600160a01b0316036113705760405162461bcd60e51b815260206004820152601960248201527f4552433732313a20617070726f766520746f2063616c6c6572000000000000006044820152606401610602565b6001600160a01b03838116600081815260056020908152604080832094871680845294825291829020805460ff191686151590811790915591519182527f17307eab39ab6107e8899845ad3d59bd9653f200f220920489ca2b5937696c31910160405180910390a3505050565b6000806113e9836109b7565b9050806001600160a01b0316846001600160a01b0316148061143057506001600160a01b0380821660009081526005602090815260408083209388168352929052205460ff165b806114545750836001600160a01b03166114498461057f565b6001600160a01b0316145b949350505050565b6114678484846115e8565b61147384848484611833565b6106855760405162461bcd60e51b815260206004820152603260248201527f4552433732313a207472616e7366657220746f206e6f6e20455243373231526560448201527f63656976657220696d706c656d656e74657200000000000000000000000000006064820152608401610602565b60006114f0826109b7565b90506114fb826109b7565b600083815260046020908152604080832080546001600160a01b03199081169091556001600160a01b0385168085526003845282852080546000190190558785526002909352818420805490911690555192935084927fddf252ad1be2c89b69c2b068fc378daa952ba7f163c4a11628f55a4df523b3ef908390a45050565b600081815260046020526040902080546001600160a01b0319166001600160a01b03841690811790915581906115af826109b7565b6001600160a01b03167f8c5be1e5ebec7d5bd14f71427d1e84f3dd0314c0f7b2291e5b200ac8c7c3b92560405160405180910390a45050565b826001600160a01b03166115fb826109b7565b6001600160a01b03161461165f5760405162461bcd60e51b815260206004820152602560248201527f4552433732313a207472616e736665722066726f6d20696e636f72726563742060448201526437bbb732b960d91b6064820152608401610602565b6001600160a01b0382166116da5760405162461bcd60e51b8152602060048201526024808201527f4552433732313a207472616e7366657220746f20746865207a65726f2061646460448201527f72657373000000000000000000000000000000000000000000000000000000006064820152608401610602565b826001600160a01b03166116ed826109b7565b6001600160a01b0316146117515760405162461bcd60e51b815260206004820152602560248201527f4552433732313a207472616e736665722066726f6d20696e636f72726563742060448201526437bbb732b960d91b6064820152608401610602565b600081815260046020908152604080832080546001600160a01b03199081169091556001600160a01b0387811680865260038552838620805460001901905590871680865283862080546001019055868652600290945282852080549092168417909155905184937fddf252ad1be2c89b69c2b068fc378daa952ba7f163c4a11628f55a4df523b3ef91a4505050565b600680546001600160a01b038381166001600160a01b0319831681179093556040519116919082907f8be0079c531659141344cd1fd0a4f28419497f9722a3daafe3b4186f6b6457e090600090a35050565b60006001600160a01b0384163b1561197f57604051630a85bd0160e11b81526001600160a01b0385169063150b7a0290611877903390899088908890600401611e93565b6020604051808303816000875af19250505080156118b2575060408051601f3d908101601f191682019092526118af91810190611ecf565b60015b611965573d8080156118e0576040519150601f19603f3d011682016040523d82523d6000602084013e6118e5565b606091505b50805160000361195d5760405162461bcd60e51b815260206004820152603260248201527f4552433732313a207472616e7366657220746f206e6f6e20455243373231526560448201527f63656976657220696d706c656d656e74657200000000000000000000000000006064820152608401610602565b805181602001fd5b6001600160e01b031916630a85bd0160e11b149050611454565b506001949350505050565b6001600160e01b031981168114610bef57600080fd5b6000602082840312156119b257600080fd5b81356119bd8161198a565b9392505050565b60005b838110156119df5781810151838201526020016119c7565b50506000910152565b60008151808452611a008160208601602086016119c4565b601f01601f19169290920160200192915050565b6020815260006119bd60208301846119e8565b600060208284031215611a3957600080fd5b5035919050565b6001600160a01b0381168114610bef57600080fd5b60008060408385031215611a6857600080fd5b8235611a7381611a40565b946020939093013593505050565b600080600060608486031215611a9657600080fd5b8335611aa181611a40565b92506020840135611ab181611a40565b929592945050506040919091013590565b600060208284031215611ad457600080fd5b81356119bd81611a40565b600080600060608486031215611af457600080fd5b8335611aff81611a40565b9250602084013591506040840135611b1681611a40565b809150509250925092565b60008060408385031215611b3457600080fd5b8235611b3f81611a40565b915060208301358015158114611b5457600080fd5b809150509250929050565b634e487b7160e01b600052604160045260246000fd5b604051601f8201601f1916810167ffffffffffffffff81118282101715611b9e57611b9e611b5f565b604052919050565b600067ffffffffffffffff821115611bc057611bc0611b5f565b50601f01601f191660200190565b60008060008060808587031215611be457600080fd5b8435611bef81611a40565b93506020850135611bff81611a40565b925060408501359150606085013567ffffffffffffffff811115611c2257600080fd5b8501601f81018713611c3357600080fd5b8035611c46611c4182611ba6565b611b75565b818152886020838501011115611c5b57600080fd5b8160208401602083013760006020838301015280935050505092959194509250565b60008060408385031215611c9057600080fd5b8235611c9b81611a40565b91506020830135611b5481611a40565b600181811c90821680611cbf57607f821691505b602082108103611cdf57634e487b7160e01b600052602260045260246000fd5b50919050565b600060018201611d0557634e487b7160e01b600052601160045260246000fd5b5060010190565b600060208284031215611d1e57600080fd5b815167ffffffffffffffff811115611d3557600080fd5b8201601f81018413611d4657600080fd5b8051611d54611c4182611ba6565b818152856020838501011115611d6957600080fd5b611d7a8260208301602086016119c4565b95945050505050565b601f821115610615576000816000526020600020601f850160051c81016020861015611dac5750805b601f850160051c820191505b81811015611dcb57828155600101611db8565b505050505050565b815167ffffffffffffffff811115611ded57611ded611b5f565b611e0181611dfb8454611cab565b84611d83565b602080601f831160018114611e365760008415611e1e5750858301515b600019600386901b1c1916600185901b178555611dcb565b600085815260208120601f198616915b82811015611e6557888601518255948401946001909101908401611e46565b5085821015611e835787850151600019600388901b60f8161c191681555b5050505050600190811b01905550565b60006001600160a01b03808716835280861660208401525083604083015260806060830152611ec560808301846119e8565b9695505050505050565b600060208284031215611ee157600080fd5b81516119bd8161198a56fea2646970667358221220fd6fe28033dd62877109f745a2de9b4af3dbde54d411eae61f79b900e263f61a64736f6c63430008180033",
  "linkReferences": {},
  "deployedLinkReferences": {}
}