{
  "_format": "hh-sol-artifact-1",
  "contractName": "YardFee",
  "sourceName": "src/contracts/utils/YardFee.sol",
  "abi": [
    {
      "inputs": [
        {
          "internalType": "address",
          "name": "_owner_",
          "type": "address"
        },
        {
          "internalType": "uint256",
          "name": "_fee",
          "type": "uint256"
        }
      ],
      "stateMutability": "nonpayable",
      "type": "constructor"
    },
    {
      "anonymous": false,
      "inputs": [
        {
          "indexed": false,
          "internalType": "uint256",
          "name": "_oldFee",
          "type": "uint256"
        },
        {
          "indexed": false,
          "internalType": "uint256",
          "name": "_newFee",
          "type": "uint256"
        }
      ],
      "name": "FeeChangeQueued",
      "type": "event"
    },
    {
      "anonymous": false,
      "inputs": [
        {
          "indexed": false,
          "internalType": "uint256",
          "name": "_oldFee",
          "type": "uint256"
        },
        {
          "indexed": false,
          "internalType": "uint256",
          "name": "_newFee",
          "type": "uint256"
        }
      ],
      "name": "FeeUpdated",
      "type": "event"
    },
    {
      "anonymous": false,
      "inputs": [
        {
          "indexed": true,
          "internalType": "address",
          "name": "previousOwner",
          "type": "address"
        },
        {
          "indexed": true,
          "internalType": "address",
          "name": "newOwner",
          "type": "address"
        }
      ],
      "name": "OwnershipTransferStarted",
      "type": "event"
    },
    {
      "anonymous": false,
      "inputs": [
        {
          "indexed": true,
          "internalType": "address",
          "name": "previousOwner",
          "type": "address"
        },
        {
          "indexed": true,
          "internalType": "address",
          "name": "newOwner",
          "type": "address"
        }
      ],
      "name": "OwnershipTransferred",
      "type": "event"
    },
    {
      "inputs": [],
      "name": "acceptOwnership",
      "outputs": [],
      "stateMutability": "nonpayable",
      "type": "function"
    },
    {
      "inputs": [],
      "name": "deleteFee",
      "outputs": [],
      "stateMutability": "nonpayable",
      "type": "function"
    },
    {
      "inputs": [
        {
          "internalType": "uint256",
          "name": "_fee",
          "type": "uint256"
        }
      ],
      "name": "feeIsSettable",
      "outputs": [
        {
          "internalType": "bool",
          "name": "",
          "type": "bool"
        }
      ],
      "stateMutability": "pure",
      "type": "function"
    },
    {
      "inputs": [],
      "name": "getFee",
      "outputs": [
        {
          "internalType": "uint256",
          "name": "",
          "type": "uint256"
        }
      ],
      "stateMutability": "nonpayable",
      "type": "function"
    },
    {
      "inputs": [],
      "name": "owner",
      "outputs": [
        {
          "internalType": "address",
          "name": "",
          "type": "address"
        }
      ],
      "stateMutability": "view",
      "type": "function"
    },
    {
      "inputs": [],
      "name": "pendingOwner",
      "outputs": [
        {
          "internalType": "address",
          "name": "",
          "type": "address"
        }
      ],
      "stateMutability": "view",
      "type": "function"
    },
    {
      "inputs": [
        {
          "internalType": "uint256",
          "name": "_newFee",
          "type": "uint256"
        }
      ],
      "name": "queueFeeChange",
      "outputs": [],
      "stateMutability": "nonpayable",
      "type": "function"
    },
    {
      "inputs": [],
      "name": "renounceOwnership",
      "outputs": [],
      "stateMutability": "nonpayable",
      "type": "function"
    },
    {
      "inputs": [],
      "name": "swapFee",
      "outputs": [
        {
          "internalType": "uint256",
          "name": "",
          "type": "uint256"
        }
      ],
      "stateMutability": "view",
      "type": "function"
    },
    {
      "inputs": [
        {
          "internalType": "address",
          "name": "newOwner",
          "type": "address"
        }
      ],
      "name": "transferOwnership",
      "outputs": [],
      "stateMutability": "nonpayable",
      "type": "function"
    }
  ],
  "bytecode": "0x608060405234801561001057600080fd5b5060405161086c38038061086c83398101604081905261002f9161018d565b61003833610051565b61004182610051565b61004a8161006d565b50506101c7565b600180546001600160a01b031916905561006a81610115565b50565b61007681610165565b6100c65760405162461bcd60e51b815260206004820152601c60248201527f594152443a204645455f49535f4e4f545f302e315f302e335f302e3500000000604482015260640160405180910390fd5b6005805460ff19169055600280549082905560408051828152602081018490527f528d9479e9f9889a87a3c30c7f7ba537e5e59c4c85a37733b16e57c62df61302910160405180910390a15050565b600080546001600160a01b038381166001600160a01b0319831681178455604051919092169283917f8be0079c531659141344cd1fd0a4f28419497f9722a3daafe3b4186f6b6457e09190a35050565b6000620186a082148061017a5750620493e082145b8061018757506207a12082145b92915050565b600080604083850312156101a057600080fd5b82516001600160a01b03811681146101b757600080fd5b6020939093015192949293505050565b610696806101d66000396000f3fe608060405234801561001057600080fd5b50600436106100be5760003560e01c8063984afcb811610076578063ced72f871161005b578063ced72f8714610154578063e30c39781461015c578063f2fde38b1461016d57600080fd5b8063984afcb81461011e578063ac40876a1461014157600080fd5b8063715018a6116100a7578063715018a6146100e957806379ba5097146100f15780638da5cb5b146100f957600080fd5b806348cc5d75146100c357806354cf2aeb146100cd575b600080fd5b6100cb610180565b005b6100d660025481565b6040519081526020015b60405180910390f35b6100cb610196565b6100cb6101a8565b6000546001600160a01b03165b6040516001600160a01b0390911681526020016100e0565b61013161012c3660046105dd565b61023b565b60405190151581526020016100e0565b6100cb61014f3660046105dd565b610263565b6100d66103a2565b6001546001600160a01b0316610106565b6100cb61017b3660046105f6565b6103de565b61018861045c565b610194620186a0610263565b565b61019e61045c565b61019460006104b6565b60015433906001600160a01b0316811461022f5760405162461bcd60e51b815260206004820152602960248201527f4f776e61626c6532537465703a2063616c6c6572206973206e6f74207468652060448201527f6e6577206f776e6572000000000000000000000000000000000000000000000060648201526084015b60405180910390fd5b610238816104b6565b50565b6000620186a08214806102505750620493e082145b8061025d57506207a12082145b92915050565b61026b61045c565b60055460ff16801561028d575062093a806004544261028a9190610626565b10155b1561029d5761029d6003546104dc565b60055460ff16156102f05760405162461bcd60e51b815260206004820152601960248201527f594152443a204645455f4348414e47455f494e5f5155455545000000000000006044820152606401610226565b6102f98161023b565b6103455760405162461bcd60e51b815260206004820152601c60248201527f594152443a204645455f49535f4e4f545f302e315f302e335f302e35000000006044820152606401610226565b6005805460ff191660011790556003819055426004556002546040517fe81e4b9d142d35939bd342374676e007019ea0c5cf310856dad8ea052227f56091610397918490918252602082015260400190565b60405180910390a150565b60055460009060ff1680156103c7575062093a80600454426103c49190610626565b10155b156103d7576103d76003546104dc565b5060025490565b6103e661045c565b600180546001600160a01b03831673ffffffffffffffffffffffffffffffffffffffff1990911681179091556104246000546001600160a01b031690565b6001600160a01b03167f38d16b8cac22d99fc7c124b9cd0de2d3fa1faef420bfe791d8c362d765e2270060405160405180910390a350565b6000546001600160a01b031633146101945760405162461bcd60e51b815260206004820181905260248201527f4f776e61626c653a2063616c6c6572206973206e6f7420746865206f776e65726044820152606401610226565b6001805473ffffffffffffffffffffffffffffffffffffffff1916905561023881610580565b6104e58161023b565b6105315760405162461bcd60e51b815260206004820152601c60248201527f594152443a204645455f49535f4e4f545f302e315f302e335f302e35000000006044820152606401610226565b6005805460ff19169055600280549082905560408051828152602081018490527f528d9479e9f9889a87a3c30c7f7ba537e5e59c4c85a37733b16e57c62df61302910160405180910390a15050565b600080546001600160a01b0383811673ffffffffffffffffffffffffffffffffffffffff19831681178455604051919092169283917f8be0079c531659141344cd1fd0a4f28419497f9722a3daafe3b4186f6b6457e09190a35050565b6000602082840312156105ef57600080fd5b5035919050565b60006020828403121561060857600080fd5b81356001600160a01b038116811461061f57600080fd5b9392505050565b8181038181111561025d577f4e487b7100000000000000000000000000000000000000000000000000000000600052601160045260246000fdfea26469706673582212208087e557f6b3c99b0447b7f78d4e62dcc2c480ba4bea1c04c9aa59bdd488a53d64736f6c63430008180033",
  "linkReferences": {},
  "deployedLinkReferences": {}
}