{
  "_format": "hh-sol-artifact-1",
  "contractName": "YardRouter",
  "sourceName": "src/contracts/YardRouter.sol",
  "abi": [
    {
      "inputs": [
        {
          "internalType": "address",
          "name": "feeToken",
          "type": "address"
        },
        {
          "internalType": "address",
          "name": "yardWrapper",
          "type": "address"
        }
      ],
      "stateMutability": "nonpayable",
      "type": "constructor"
    },
    {
      "anonymous": false,
      "inputs": [
        {
          "indexed": true,
          "internalType": "contract IERC721",
          "name": "nftIn",
          "type": "address"
        },
        {
          "indexed": false,
          "internalType": "uint256[]",
          "name": "idsIn",
          "type": "uint256[]"
        }
      ],
      "name": "BatchLiquidityAdded",
      "type": "event"
    },
    {
      "anonymous": false,
      "inputs": [
        {
          "indexed": true,
          "internalType": "contract IERC721",
          "name": "nftOut",
          "type": "address"
        },
        {
          "indexed": false,
          "internalType": "uint256[]",
          "name": "idsOut",
          "type": "uint256[]"
        }
      ],
      "name": "BatchLiquidityRemoved",
      "type": "event"
    },
    {
      "anonymous": false,
      "inputs": [
        {
          "indexed": false,
          "internalType": "contract IERC721[]",
          "name": "path",
          "type": "address[]"
        },
        {
          "indexed": false,
          "internalType": "uint256[]",
          "name": "idsIn",
          "type": "uint256[]"
        },
        {
          "indexed": false,
          "internalType": "uint256[]",
          "name": "idsOut",
          "type": "uint256[]"
        }
      ],
      "name": "BatchSwapped",
      "type": "event"
    },
    {
      "anonymous": false,
      "inputs": [
        {
          "indexed": true,
          "internalType": "contract IERC721",
          "name": "nftIn",
          "type": "address"
        },
        {
          "indexed": true,
          "internalType": "uint256",
          "name": "idIn",
          "type": "uint256"
        }
      ],
      "name": "LiquidityAdded",
      "type": "event"
    },
    {
      "anonymous": false,
      "inputs": [
        {
          "indexed": true,
          "internalType": "contract IERC721",
          "name": "nftOut",
          "type": "address"
        },
        {
          "indexed": true,
          "internalType": "uint256",
          "name": "idOut",
          "type": "uint256"
        }
      ],
      "name": "LiquidityRemoved",
      "type": "event"
    },
    {
      "anonymous": false,
      "inputs": [
        {
          "indexed": true,
          "internalType": "address",
          "name": "previousOwner",
          "type": "address"
        },
        {
          "indexed": true,
          "internalType": "address",
          "name": "newOwner",
          "type": "address"
        }
      ],
      "name": "OwnershipTransferStarted",
      "type": "event"
    },
    {
      "anonymous": false,
      "inputs": [
        {
          "indexed": true,
          "internalType": "address",
          "name": "previousOwner",
          "type": "address"
        },
        {
          "indexed": true,
          "internalType": "address",
          "name": "newOwner",
          "type": "address"
        }
      ],
      "name": "OwnershipTransferred",
      "type": "event"
    },
    {
      "anonymous": false,
      "inputs": [
        {
          "indexed": true,
          "internalType": "address",
          "name": "lpProvider",
          "type": "address"
        },
        {
          "indexed": true,
          "internalType": "uint256",
          "name": "reward",
          "type": "uint256"
        }
      ],
      "name": "RewardClaimed",
      "type": "event"
    },
    {
      "anonymous": false,
      "inputs": [
        {
          "indexed": true,
          "internalType": "contract IERC721",
          "name": "nftIn",
          "type": "address"
        },
        {
          "indexed": false,
          "internalType": "uint256",
          "name": "idIn",
          "type": "uint256"
        },
        {
          "indexed": true,
          "internalType": "contract IERC721",
          "name": "nftOut",
          "type": "address"
        },
        {
          "indexed": false,
          "internalType": "uint256",
          "name": "idOut",
          "type": "uint256"
        }
      ],
      "name": "Swapped",
      "type": "event"
    },
    {
      "inputs": [],
      "name": "DEFAULT_FEE",
      "outputs": [
        {
          "internalType": "uint32",
          "name": "",
          "type": "uint32"
        }
      ],
      "stateMutability": "view",
      "type": "function"
    },
    {
      "inputs": [],
      "name": "FACTORY",
      "outputs": [
        {
          "internalType": "contract IYardFactory",
          "name": "",
          "type": "address"
        }
      ],
      "stateMutability": "view",
      "type": "function"
    },
    {
      "inputs": [],
      "name": "FEE_TOKEN",
      "outputs": [
        {
          "internalType": "address",
          "name": "",
          "type": "address"
        }
      ],
      "stateMutability": "view",
      "type": "function"
    },
    {
      "inputs": [],
      "name": "YARD_WRAPPER",
      "outputs": [
        {
          "internalType": "address",
          "name": "",
          "type": "address"
        }
      ],
      "stateMutability": "view",
      "type": "function"
    },
    {
      "inputs": [],
      "name": "acceptOwnership",
      "outputs": [],
      "stateMutability": "nonpayable",
      "type": "function"
    },
    {
      "inputs": [
        {
          "internalType": "contract IERC721",
          "name": "nftA",
          "type": "address"
        },
        {
          "internalType": "contract IERC721",
          "name": "nftB",
          "type": "address"
        },
        {
          "internalType": "contract IERC721",
          "name": "nftIn",
          "type": "address"
        },
        {
          "internalType": "uint256[]",
          "name": "idsIn",
          "type": "uint256[]"
        },
        {
          "internalType": "address",
          "name": "to",
          "type": "address"
        }
      ],
      "name": "addBatchLiquidity",
      "outputs": [
        {
          "internalType": "uint256[]",
          "name": "wIds",
          "type": "uint256[]"
        }
      ],
      "stateMutability": "nonpayable",
      "type": "function"
    },
    {
      "inputs": [
        {
          "internalType": "contract IERC721",
          "name": "nftA",
          "type": "address"
        },
        {
          "internalType": "contract IERC721",
          "name": "nftB",
          "type": "address"
        },
        {
          "internalType": "contract IERC721",
          "name": "nftIn",
          "type": "address"
        },
        {
          "internalType": "uint256",
          "name": "idIn",
          "type": "uint256"
        },
        {
          "internalType": "address",
          "name": "to",
          "type": "address"
        }
      ],
      "name": "addLiquidity",
      "outputs": [
        {
          "internalType": "uint256",
          "name": "wId",
          "type": "uint256"
        }
      ],
      "stateMutability": "nonpayable",
      "type": "function"
    },
    {
      "inputs": [
        {
          "internalType": "contract IERC721",
          "name": "nftA",
          "type": "address"
        },
        {
          "internalType": "uint256[]",
          "name": "idsA",
          "type": "uint256[]"
        },
        {
          "internalType": "contract IERC721",
          "name": "nftB",
          "type": "address"
        },
        {
          "internalType": "uint256[]",
          "name": "idsB",
          "type": "uint256[]"
        },
        {
          "internalType": "uint256",
          "name": "fee",
          "type": "uint256"
        },
        {
          "internalType": "address",
          "name": "to",
          "type": "address"
        }
      ],
      "name": "createPair",
      "outputs": [
        {
          "internalType": "address",
          "name": "pair",
          "type": "address"
        }
      ],
      "stateMutability": "nonpayable",
      "type": "function"
    },
    {
      "inputs": [
        {
          "internalType": "uint256",
          "name": "_fee",
          "type": "uint256"
        }
      ],
      "name": "feeIsSettable",
      "outputs": [
        {
          "internalType": "bool",
          "name": "",
          "type": "bool"
        }
      ],
      "stateMutability": "pure",
      "type": "function"
    },
    {
      "inputs": [
        {
          "internalType": "address",
          "name": "lpProvider",
          "type": "address"
        }
      ],
      "name": "getLiquidityProvidedPairs",
      "outputs": [
        {
          "internalType": "address[]",
          "name": "",
          "type": "address[]"
        }
      ],
      "stateMutability": "view",
      "type": "function"
    },
    {
      "inputs": [
        {
          "internalType": "contract IERC721",
          "name": "nftA",
          "type": "address"
        },
        {
          "internalType": "contract IERC721",
          "name": "nftB",
          "type": "address"
        }
      ],
      "name": "getPair",
      "outputs": [
        {
          "internalType": "address",
          "name": "pair",
          "type": "address"
        }
      ],
      "stateMutability": "view",
      "type": "function"
    },
    {
      "inputs": [
        {
          "internalType": "contract IERC721",
          "name": "nftA",
          "type": "address"
        },
        {
          "internalType": "contract IERC721",
          "name": "nftB",
          "type": "address"
        },
        {
          "internalType": "address",
          "name": "lpProvider",
          "type": "address"
        }
      ],
      "name": "getRewards",
      "outputs": [
        {
          "internalType": "uint256",
          "name": "",
          "type": "uint256"
        }
      ],
      "stateMutability": "view",
      "type": "function"
    },
    {
      "inputs": [
        {
          "internalType": "address",
          "name": "lpProvider",
          "type": "address"
        },
        {
          "internalType": "uint256",
          "name": "",
          "type": "uint256"
        }
      ],
      "name": "liquidityProvidedPairs",
      "outputs": [
        {
          "internalType": "address",
          "name": "pairs",
          "type": "address"
        }
      ],
      "stateMutability": "view",
      "type": "function"
    },
    {
      "inputs": [
        {
          "internalType": "address",
          "name": "",
          "type": "address"
        },
        {
          "internalType": "address",
          "name": "",
          "type": "address"
        },
        {
          "internalType": "uint256",
          "name": "",
          "type": "uint256"
        },
        {
          "internalType": "bytes",
          "name": "",
          "type": "bytes"
        }
      ],
      "name": "onERC721Received",
      "outputs": [
        {
          "internalType": "bytes4",
          "name": "",
          "type": "bytes4"
        }
      ],
      "stateMutability": "pure",
      "type": "function"
    },
    {
      "inputs": [],
      "name": "owner",
      "outputs": [
        {
          "internalType": "address",
          "name": "",
          "type": "address"
        }
      ],
      "stateMutability": "view",
      "type": "function"
    },
    {
      "inputs": [],
      "name": "pendingOwner",
      "outputs": [
        {
          "internalType": "address",
          "name": "",
          "type": "address"
        }
      ],
      "stateMutability": "view",
      "type": "function"
    },
    {
      "inputs": [
        {
          "internalType": "contract IERC721",
          "name": "nftA",
          "type": "address"
        },
        {
          "internalType": "contract IERC721",
          "name": "nftB",
          "type": "address"
        },
        {
          "internalType": "contract IERC721",
          "name": "nftIn",
          "type": "address"
        }
      ],
      "name": "precalculateOutputNFT",
      "outputs": [
        {
          "internalType": "uint256",
          "name": "idOut",
          "type": "uint256"
        }
      ],
      "stateMutability": "view",
      "type": "function"
    },
    {
      "inputs": [
        {
          "internalType": "contract IERC721",
          "name": "nftA",
          "type": "address"
        },
        {
          "internalType": "contract IERC721",
          "name": "nftB",
          "type": "address"
        },
        {
          "internalType": "contract IERC721",
          "name": "nftOut",
          "type": "address"
        },
        {
          "internalType": "uint256[]",
          "name": "idsOut",
          "type": "uint256[]"
        },
        {
          "internalType": "uint256[]",
          "name": "wIds",
          "type": "uint256[]"
        },
        {
          "internalType": "address",
          "name": "to",
          "type": "address"
        }
      ],
      "name": "removeBatchLiquidity",
      "outputs": [
        {
          "internalType": "uint256[]",
          "name": "_idsOut",
          "type": "uint256[]"
        }
      ],
      "stateMutability": "nonpayable",
      "type": "function"
    },
    {
      "inputs": [
        {
          "internalType": "contract IERC721",
          "name": "nftA",
          "type": "address"
        },
        {
          "internalType": "contract IERC721",
          "name": "nftB",
          "type": "address"
        },
        {
          "internalType": "contract IERC721",
          "name": "nftOut",
          "type": "address"
        },
        {
          "internalType": "uint256",
          "name": "idOut",
          "type": "uint256"
        },
        {
          "internalType": "uint256",
          "name": "wId",
          "type": "uint256"
        },
        {
          "internalType": "address",
          "name": "to",
          "type": "address"
        }
      ],
      "name": "removeLiquidity",
      "outputs": [
        {
          "internalType": "uint256",
          "name": "_idOut",
          "type": "uint256"
        }
      ],
      "stateMutability": "nonpayable",
      "type": "function"
    },
    {
      "inputs": [],
      "name": "renounceOwnership",
      "outputs": [],
      "stateMutability": "nonpayable",
      "type": "function"
    },
    {
      "inputs": [
        {
          "internalType": "address",
          "name": "factory",
          "type": "address"
        }
      ],
      "name": "setFactory",
      "outputs": [],
      "stateMutability": "nonpayable",
      "type": "function"
    },
    {
      "inputs": [
        {
          "internalType": "contract IERC721[]",
          "name": "path",
          "type": "address[]"
        },
        {
          "internalType": "uint256[]",
          "name": "idsIn",
          "type": "uint256[]"
        },
        {
          "internalType": "address",
          "name": "to",
          "type": "address"
        }
      ],
      "name": "swapBatchNFTsForArbitraryNFTs",
      "outputs": [
        {
          "internalType": "uint256[]",
          "name": "idsOut",
          "type": "uint256[]"
        }
      ],
      "stateMutability": "nonpayable",
      "type": "function"
    },
    {
      "inputs": [
        {
          "internalType": "contract IERC721[]",
          "name": "path",
          "type": "address[]"
        },
        {
          "internalType": "uint256[]",
          "name": "idsIn",
          "type": "uint256[]"
        },
        {
          "internalType": "uint256[]",
          "name": "idsOut",
          "type": "uint256[]"
        },
        {
          "internalType": "address",
          "name": "to",
          "type": "address"
        }
      ],
      "name": "swapBatchNFTsForExactNFTs",
      "outputs": [
        {
          "internalType": "uint256[]",
          "name": "_idsOut",
          "type": "uint256[]"
        }
      ],
      "stateMutability": "nonpayable",
      "type": "function"
    },
    {
      "inputs": [
        {
          "internalType": "contract IERC721[]",
          "name": "path",
          "type": "address[]"
        },
        {
          "internalType": "uint256",
          "name": "idIn",
          "type": "uint256"
        },
        {
          "internalType": "uint256[]",
          "name": "idsOut",
          "type": "uint256[]"
        },
        {
          "internalType": "address",
          "name": "to",
          "type": "address"
        }
      ],
      "name": "swapExactNFTsForExactNFTsAcrossPools",
      "outputs": [
        {
          "internalType": "uint256",
          "name": "",
          "type": "uint256"
        }
      ],
      "stateMutability": "nonpayable",
      "type": "function"
    },
    {
      "inputs": [
        {
          "internalType": "contract IERC721[]",
          "name": "path",
          "type": "address[]"
        },
        {
          "internalType": "uint256",
          "name": "idIn",
          "type": "uint256"
        },
        {
          "internalType": "address",
          "name": "to",
          "type": "address"
        }
      ],
      "name": "swapNFTForArbitraryNFT",
      "outputs": [
        {
          "internalType": "uint256",
          "name": "idOut",
          "type": "uint256"
        }
      ],
      "stateMutability": "nonpayable",
      "type": "function"
    },
    {
      "inputs": [
        {
          "internalType": "contract IERC721[]",
          "name": "path",
          "type": "address[]"
        },
        {
          "internalType": "uint256",
          "name": "idIn",
          "type": "uint256"
        },
        {
          "internalType": "uint256",
          "name": "idOut",
          "type": "uint256"
        },
        {
          "internalType": "address",
          "name": "to",
          "type": "address"
        }
      ],
      "name": "swapNFTForExactNFT",
      "outputs": [
        {
          "internalType": "uint256",
          "name": "_idOut",
          "type": "uint256"
        }
      ],
      "stateMutability": "nonpayable",
      "type": "function"
    },
    {
      "inputs": [
        {
          "internalType": "contract IERC721",
          "name": "nftA",
          "type": "address"
        },
        {
          "internalType": "contract IERC721",
          "name": "nftB",
          "type": "address"
        }
      ],
      "name": "takeRewards",
      "outputs": [
        {
          "internalType": "uint256",
          "name": "",
          "type": "uint256"
        }
      ],
      "stateMutability": "nonpayable",
      "type": "function"
    },
    {
      "inputs": [
        {
          "internalType": "address",
          "name": "newOwner",
          "type": "address"
        }
      ],
      "name": "transferOwnership",
      "outputs": [],
      "stateMutability": "nonpayable",
      "type": "function"
    },
    {
      "inputs": [
        {
          "internalType": "contract IERC721",
          "name": "nftA",
          "type": "address"
        },
        {
          "internalType": "contract IERC721",
          "name": "nftB",
          "type": "address"
        }
      ],
      "name": "viewAllReserves",
      "outputs": [
        {
          "internalType": "uint256",
          "name": "",
          "type": "uint256"
        },
        {
          "internalType": "uint256",
          "name": "",
          "type": "uint256"
        }
      ],
      "stateMutability": "view",
      "type": "function"
    }
  ],
  "bytecode": "0x60c06040523480156200001157600080fd5b506040516200351b3803806200351b8339810160408190526200003491620000e2565b6200003f3362000057565b6001600160a01b039182166080521660a0526200011a565b600180546001600160a01b0319169055620000728162000075565b50565b600080546001600160a01b038381166001600160a01b0319831681178455604051919092169283917f8be0079c531659141344cd1fd0a4f28419497f9722a3daafe3b4186f6b6457e09190a35050565b80516001600160a01b0381168114620000dd57600080fd5b919050565b60008060408385031215620000f657600080fd5b6200010183620000c5565b91506200011160208401620000c5565b90509250929050565b60805160a0516133c6620001556000396000818161041f01526119570152600081816103500152818161193501526125bf01526133c66000f3fe608060405234801561001057600080fd5b50600436106101cf5760003560e01c80638327a8b711610104578063c83ca9a0116100a2578063e6a4390511610071578063e6a439051461048b578063f2724aa91461049e578063f2fde38b146104b1578063f66fdeb6146104c457600080fd5b8063c83ca9a014610441578063d1c98ab414610454578063d6f13eef14610467578063e30c39781461047a57600080fd5b8063984afcb8116100de578063984afcb8146103c4578063a8f9bc4a146103e7578063acf49b9e146103fa578063b50232361461041a57600080fd5b80638327a8b71461038d5780638a548ceb146103a05780638da5cb5b146103b357600080fd5b80635bb4780811610171578063715018a61161014b578063715018a61461034357806373717b081461034b57806374cd24091461037257806379ba50971461038557600080fd5b80635bb47808146103085780635d005c131461031d5780636d6f0ca21461033057600080fd5b8063150b7a02116101ad578063150b7a021461022d578063224ea1e3146102965780632dd31000146102be5780634fcc1def146102e957600080fd5b806301fac508146101d457806304e3fa34146101fa57806312bfad751461021a575b600080fd5b6101e76101e2366004612935565b6104d7565b6040519081526020015b60405180910390f35b61020d610208366004612adc565b6105a0565b6040516101f19190612bb3565b6101e7610228366004612bc6565b610801565b61026561023b366004612c21565b7f150b7a020000000000000000000000000000000000000000000000000000000095945050505050565b6040517fffffffff0000000000000000000000000000000000000000000000000000000090911681526020016101f1565b6102a96102a4366004612cc0565b610929565b604080519283526020830191909152016101f1565b6002546102d1906001600160a01b031681565b6040516001600160a01b0390911681526020016101f1565b6102f3620186a081565b60405163ffffffff90911681526020016101f1565b61031b610316366004612cf9565b6109f0565b005b61020d61032b366004612d16565b610a76565b6101e761033e366004612da0565b610bbc565b61031b6111b3565b6102d17f000000000000000000000000000000000000000000000000000000000000000081565b6101e7610380366004612cc0565b6111c7565b61031b6112ad565b6101e761039b366004612df7565b611338565b6101e76103ae366004612e37565b6114fc565b6000546001600160a01b03166102d1565b6103d76103d2366004612e91565b611520565b60405190151581526020016101f1565b6101e76103f5366004612df7565b611544565b61040d610408366004612cf9565b61161f565b6040516101f19190612eaa565b6102d17f000000000000000000000000000000000000000000000000000000000000000081565b6102d161044f366004612ef7565b611695565b61020d610462366004612f91565b6119db565b61020d610475366004613032565b611bf3565b6001546001600160a01b03166102d1565b6102d1610499366004612cc0565b611dff565b6101e76104ac36600461309f565b611f44565b61031b6104bf366004612cf9565b6120cf565b6102d16104d23660046130f7565b612140565b60055460009060ff161561052d5760405162461bcd60e51b8152602060048201526018602482015277165054910e881514905394d050d51253d397d313d0d2d15160421b60448201526064015b60405180910390fd5b6005805460ff19166001179055610545878787612178565b610553878787878787612285565b905083856001600160a01b03167fc2c3f06e49b9f15e7b4af9055e183b0d73362e033ad82a07dec9bf984017171960405160405180910390a36005805460ff191690559695505050505050565b60055460609060ff16156105f15760405162461bcd60e51b8152602060048201526018602482015277165054910e881514905394d050d51253d397d313d0d2d15160421b6044820152606401610524565b6005805460ff19166001179055845160021461064f5760405162461bcd60e51b815260206004820152601960248201527f594152443a20494e56414c49445f504154485f4c454e475448000000000000006044820152606401610524565b6001855161065d9190613139565b845110156106ad5760405162461bcd60e51b815260206004820152601960248201527f594152443a20494e56414c49445f535741505f4c454e475448000000000000006044820152606401610524565b82518451146106fe5760405162461bcd60e51b815260206004820152601560248201527f594152443a204c454e4754485f4d49534d4154434800000000000000000000006044820152606401610524565b835167ffffffffffffffff811115610718576107186129a5565b604051908082528060200260200182016040528015610741578160200160208202803683370190505b50905060005b84518110156107b35761078e868683815181106107665761076661314c565b60200260200101518684815181106107805761078061314c565b602002602001015186611f44565b8282815181106107a0576107a061314c565b6020908102919091010152600101610747565b507fdf29a7a9060eca08d37be74b0f6ff610a4d1a26f9d24154474c46b8e29748ae58585856040516107e793929190613162565b60405180910390a16005805460ff19169055949350505050565b60055460009060ff16156108525760405162461bcd60e51b8152602060048201526018602482015277165054910e881514905394d050d51253d397d313d0d2d15160421b6044820152606401610524565b6005805460ff1916600117905583516002146108b05760405162461bcd60e51b815260206004820152601660248201527f594152443a20504154485f4d5553545f42455f54574f000000000000000000006044820152606401610524565b610909846000815181106108c6576108c661314c565b6020026020010151856001815181106108e1576108e161314c565b6020026020010151866000815181106108fc576108fc61314c565b6020026020010151611338565b905061091784848385611f44565b6005805460ff19169055949350505050565b600080600080610939868661237b565b91509150816109825760405162461bcd60e51b8152602060048201526015602482015274165054910e881410525497d25391561254d5115395605a1b6044820152606401610524565b806001600160a01b0316636aa701bf6040518163ffffffff1660e01b81526004016040805180830381865afa1580156109bf573d6000803e3d6000fd5b505050506040513d601f19601f820116820180604052508101906109e391906131ce565b9350935050509250929050565b6109f86123b2565b6001600160a01b038116610a4e5760405162461bcd60e51b815260206004820152601d60248201527f594152443a20464143544f52595f49535f5a45524f5f414444524553530000006044820152606401610524565b600280546001600160a01b0319166001600160a01b038316179055610a73600061240c565b50565b60608251600003610ac95760405162461bcd60e51b815260206004820152601460248201527f594152443a205a4552305f4e46545f41525241590000000000000000000000006044820152606401610524565b610ad4868686612178565b825167ffffffffffffffff811115610aee57610aee6129a5565b604051908082528060200260200182016040528015610b17578160200160208202803683370190505b50905060005b8351811015610b7157610b4c878787878581518110610b3e57610b3e61314c565b602002602001015187612425565b828281518110610b5e57610b5e61314c565b6020908102919091010152600101610b1d565b50836001600160a01b03167fd0c73bbaaeb75472e9be7ecce5b2138d689fa1462b5f22589781885e95fd6f7e84604051610bab9190612bb3565b60405180910390a295945050505050565b60055460009060ff1615610c0d5760405162461bcd60e51b8152602060048201526018602482015277165054910e881514905394d050d51253d397d313d0d2d15160421b6044820152606401610524565b6005805460ff19166001179055845160021115610c6c5760405162461bcd60e51b815260206004820152601f60248201527f594152443a20504154485f4d5553545f42455f41545f4c454153545f54574f006044820152606401610524565b60018551610c7a9190613139565b835114610cc95760405162461bcd60e51b815260206004820152601960248201527f594152443a20494e56414c49445f535741505f4c454e475448000000000000006044820152606401610524565b6001600160a01b038216610d1f5760405162461bcd60e51b815260206004820152601c60248201527f594152443a205a45524f5f524543495049454e545f41444452455353000000006044820152606401610524565b6000805b60018751610d319190613139565b8110156110f257604080516002808252606082018352600092602083019080368337019050509050878281518110610d6b57610d6b61314c565b602002602001015181600081518110610d8657610d8661314c565b6001600160a01b039092166020928302919091019091015287610daa8360016131f2565b81518110610dba57610dba61314c565b602002602001015181600181518110610dd557610dd561314c565b60200260200101906001600160a01b031690816001600160a01b03168152505081600003610e2a57610e23818888600081518110610e1557610e1561314c565b602002602001015130611f44565b92506110e9565b600080610e6b83600081518110610e4357610e4361314c565b602002602001015184600181518110610e5e57610e5e61314c565b602002602001015161237b565b9150915081610eb45760405162461bcd60e51b8152602060048201526015602482015274165054910e881410525497d25391561254d5115395605a1b6044820152606401610524565b610efe8a8581518110610ec957610ec961314c565b602002602001015189600187610edf9190613139565b81518110610eef57610eef61314c565b60200260200101513084612526565b610f0833826125bd565b806001600160a01b0316636548aff08b8681518110610f2957610f2961314c565b60200260200101518a600188610f3f9190613139565b81518110610f4f57610f4f61314c565b60200260200101518d886001610f6591906131f2565b81518110610f7557610f7561314c565b60200260200101518c8981518110610f8f57610f8f61314c565b60209081029190910101516040517fffffffff0000000000000000000000000000000000000000000000000000000060e087901b1681526001600160a01b039485166004820152602481019390935292166044820152606481019190915230608482015260a4016020604051808303816000875af1158015611015573d6000803e3d6000fd5b505050506040513d601f19601f820116820180604052508101906110399190613205565b9450896110478560016131f2565b815181106110575761105761314c565b60200260200101516001600160a01b03168a858151811061107a5761107a61314c565b60200260200101516001600160a01b03167fdb587d878116df0bdd4fe154699aa2c5f439da001cc811dfd05d9f589fc5a8ee8a87815181106110be576110be61314c565b6020026020010151886040516110de929190918252602082015260400190565b60405180910390a350505b50600101610d23565b5085600187516111029190613139565b815181106111125761111261314c565b60209081029190910101516040517f42842e0e0000000000000000000000000000000000000000000000000000000081523060048201526001600160a01b03858116602483015260448201849052909116906342842e0e90606401600060405180830381600087803b15801561118757600080fd5b505af115801561119b573d6000803e3d6000fd5b50506005805460ff1916905550909695505050505050565b6111bb6123b2565b6111c5600061240c565b565b60008060006111d6858561237b565b915091508161121f5760405162461bcd60e51b8152602060048201526015602482015274165054910e881410525497d25391561254d5115395605a1b6044820152606401610524565b6040517fef5cfb8c0000000000000000000000000000000000000000000000000000000081523360048201526001600160a01b0382169063ef5cfb8c906024016020604051808303816000875af115801561127e573d6000803e3d6000fd5b505050506040513d601f19601f820116820180604052508101906112a29190613205565b925050505b92915050565b60015433906001600160a01b0316811461132f5760405162461bcd60e51b815260206004820152602960248201527f4f776e61626c6532537465703a2063616c6c6572206973206e6f74207468652060448201527f6e6577206f776e657200000000000000000000000000000000000000000000006064820152608401610524565b610a738161240c565b6000611345848484612178565b6000846001600160a01b0316836001600160a01b0316146113665784611368565b835b9050600080611377878761237b565b91509150816113c05760405162461bcd60e51b8152602060048201526015602482015274165054910e881410525497d25391561254d5115395605a1b6044820152606401610524565b6040517f22d98d3f0000000000000000000000000000000000000000000000000000000081526001600160a01b03848116600483015260009182918416906322d98d3f90602401600060405180830381865afa158015611424573d6000803e3d6000fd5b505050506040513d6000823e601f3d908101601f1916820160405261144c919081019061321e565b91509150816000036114c65760405162461bcd60e51b815260206004820152602360248201527f594152443a205a45524f5f4c49515549444954595f464f525f4f55545055545f60448201527f4e465400000000000000000000000000000000000000000000000000000000006064820152608401610524565b60006114d1836126e2565b90508181815181106114e5576114e561314c565b602002602001015196505050505050509392505050565b6000611509868686612178565b6115168686868686612425565b9695505050505050565b6000620186a08214806115355750620493e082145b806112a75750506207a1201490565b6000806000611553868661237b565b915091508161159c5760405162461bcd60e51b8152602060048201526015602482015274165054910e881410525497d25391561254d5115395605a1b6044820152606401610524565b6040517f64ab86750000000000000000000000000000000000000000000000000000000081526001600160a01b0385811660048301528216906364ab867590602401602060405180830381865afa1580156115fb573d6000803e3d6000fd5b505050506040513d601f19601f820116820180604052508101906115169190613205565b6001600160a01b03811660009081526003602090815260409182902080548351818402810184019094528084526060939283018282801561168957602002820191906000526020600020905b81546001600160a01b0316815260019091019060200180831161166b575b50505050509050919050565b60006001600160a01b03871615806116b457506001600160a01b038516155b156117015760405162461bcd60e51b815260206004820152601660248201527f594152443a205a45524f5f414444524553535f4e4654000000000000000000006044820152606401610524565b85516000036117525760405162461bcd60e51b815260206004820152601160248201527f594152443a205a45524f5f4c454e4754480000000000000000000000000000006044820152606401610524565b83518651146117a35760405162461bcd60e51b815260206004820152601560248201527f594152443a204c454e4754485f4d49534d4154434800000000000000000000006044820152606401610524565b6001600160a01b0382166117f95760405162461bcd60e51b815260206004820152601560248201527f594152443a205a45524f5f544f5f4144445245535300000000000000000000006044820152606401610524565b60008315611807578361180c565b620186a05b905061181781611520565b6118895760405162461bcd60e51b815260206004820152603560248201527f594152443a204645455f4e4f545f5345545441424c455f43484f4f53455f454960448201527f544845525f302e315f302e335f302e355f2a31453600000000000000000000006064820152608401610524565b60005b87518110156118e7576118c9898983815181106118ab576118ab61314c565b602090810291909101015160025433906001600160a01b0316612526565b6118df878783815181106118ab576118ab61314c565b60010161188c565b506002546040517f129ccb5d0000000000000000000000000000000000000000000000000000000081526001600160a01b039091169063129ccb5d90611981908b908b908b908b90339089907f0000000000000000000000000000000000000000000000000000000000000000907f0000000000000000000000000000000000000000000000000000000000000000908e906004016132bb565b6020604051808303816000875af11580156119a0573d6000803e3d6000fd5b505050506040513d601f19601f820116820180604052508101906119c4919061332f565b91506119d03383612725565b509695505050505050565b60055460609060ff1615611a2c5760405162461bcd60e51b8152602060048201526018602482015277165054910e881514905394d050d51253d397d313d0d2d15160421b6044820152606401610524565b6005805460ff19166001179055611a44878787612178565b8351600003611a955760405162461bcd60e51b815260206004820152601160248201527f594152443a205a45524f5f4c454e4754480000000000000000000000000000006044820152606401610524565b8251845114611ae65760405162461bcd60e51b815260206004820152601560248201527f594152443a204c454e4754485f4d49534d4154434800000000000000000000006044820152606401610524565b835167ffffffffffffffff811115611b0057611b006129a5565b604051908082528060200260200182016040528015611b29578160200160208202803683370190505b50905060005b8451811015611b9d57611b78888888888581518110611b5057611b5061314c565b6020026020010151888681518110611b6a57611b6a61314c565b602002602001015188612285565b828281518110611b8a57611b8a61314c565b6020908102919091010152600101611b2f565b50846001600160a01b03167fb5271c9001c68a5f9d1f95e60960640fa55e6e7b7a24fd37ec1c87657d7f936985604051611bd79190612bb3565b60405180910390a26005805460ff191690559695505050505050565b60055460609060ff1615611c445760405162461bcd60e51b8152602060048201526018602482015277165054910e881514905394d050d51253d397d313d0d2d15160421b6044820152606401610524565b6005805460ff191660011790558351600214611ca25760405162461bcd60e51b815260206004820152601960248201527f594152443a20494e56414c49445f504154485f4c454e475448000000000000006044820152606401610524565b60018451611cb09190613139565b83511015611d005760405162461bcd60e51b815260206004820152601960248201527f594152443a20494e56414c49445f535741505f4c454e475448000000000000006044820152606401610524565b825167ffffffffffffffff811115611d1a57611d1a6129a5565b604051908082528060200260200182016040528015611d43578160200160208202803683370190505b50905060005b8351811015611ded576000611da086600081518110611d6a57611d6a61314c565b602002602001015187600181518110611d8557611d8561314c565b6020026020010151886000815181106108fc576108fc61314c565b9050611dc786868481518110611db857611db861314c565b60200260200101518387611f44565b838381518110611dd957611dd961314c565b602090810291909101015250600101611d49565b506005805460ff191690559392505050565b60025460405163e6a4390560e01b81526001600160a01b0384811660048301528381166024830152600092839291169063e6a4390590604401602060405180830381865afa158015611e55573d6000803e3d6000fd5b505050506040513d601f19601f82011682018060405250810190611e79919061332f565b6001600160a01b031603611ec75760405162461bcd60e51b8152602060048201526015602482015274165054910e881410525497d25391561254d5115395605a1b6044820152606401610524565b60025460405163e6a4390560e01b81526001600160a01b03858116600483015284811660248301529091169063e6a4390590604401602060405180830381865afa158015611f19573d6000803e3d6000fd5b505050506040513d601f19601f82011682018060405250810190611f3d919061332f565b9392505050565b600554600090610100900460ff1615611f9a5760405162461bcd60e51b8152602060048201526018602482015277165054910e881514905394d050d51253d397d313d0d2d15160421b6044820152606401610524565b6005805461ff0019166101001790558451600214611ffa5760405162461bcd60e51b815260206004820152601660248201527f594152443a20504154485f4d5553545f42455f54574f000000000000000000006044820152606401610524565b60008061202e876000815181106120135761201361314c565b602002602001015188600181518110610e5e57610e5e61314c565b91509150816120775760405162461bcd60e51b8152602060048201526015602482015274165054910e881410525497d25391561254d5115395605a1b6044820152606401610524565b6120b9818860008151811061208e5761208e61314c565b6020026020010151888a6001815181106120aa576120aa61314c565b602002602001015189896127b3565b6005805461ff0019169055979650505050505050565b6120d76123b2565b600180546001600160a01b0383166001600160a01b031990911681179091556121086000546001600160a01b031690565b6001600160a01b03167f38d16b8cac22d99fc7c124b9cd0de2d3fa1faef420bfe791d8c362d765e2270060405160405180910390a350565b6003602052816000526040600020818154811061215c57600080fd5b6000918252602090912001546001600160a01b03169150829050565b816001600160a01b0316836001600160a01b0316036121d95760405162461bcd60e51b815260206004820152601760248201527f594152443a204e4654535f4152455f5448455f53414d450000000000000000006044820152606401610524565b826001600160a01b0316816001600160a01b03161415801561220d5750816001600160a01b0316816001600160a01b031614155b156122805760405162461bcd60e51b815260206004820152602760248201527f594152443a204e46545f494e5f444f45535f4e4f545f4d415443485f4549544860448201527f45525f4e465453000000000000000000000000000000000000000000000000006064820152608401610524565b505050565b6000806122928888611dff565b6040517f22660a680000000000000000000000000000000000000000000000000000000081526001600160a01b03888116600483015260248201889052604482018790523360648301528581166084830152919250908216906322660a689060a4016020604051808303816000875af1158015612313573d6000803e3d6000fd5b505050506040513d601f19601f820116820180604052508101906123379190613205565b915081866001600160a01b03167fc2c3f06e49b9f15e7b4af9055e183b0d73362e033ad82a07dec9bf984017171960405160405180910390a3509695505050505050565b600080600061238a8585611dff565b90506001600160a01b0381166123a2576000806123a6565b6001815b92509250509250929050565b6000546001600160a01b031633146111c55760405162461bcd60e51b815260206004820181905260248201527f4f776e61626c653a2063616c6c6572206973206e6f7420746865206f776e65726044820152606401610524565b600180546001600160a01b0319169055610a73816128d0565b6000806124328787611dff565b905061244085853384612526565b6040517f4272870a0000000000000000000000000000000000000000000000000000000081526001600160a01b038681166004830152602482018690523360448301528481166064830152821690634272870a906084016020604051808303816000875af11580156124b6573d6000803e3d6000fd5b505050506040513d601f19601f820116820180604052508101906124da9190613205565b91506124e63382612725565b60405184906001600160a01b038716907fc17cea59c2955cb181b03393209566960365771dbba9dc3d510180e7cb31208890600090a35095945050505050565b6040517fb88d4fde0000000000000000000000000000000000000000000000000000000081526001600160a01b038381166004830152828116602483015260448201859052608060648301526000608483015285169063b88d4fde9060a401600060405180830381600087803b15801561259f57600080fd5b505af11580156125b3573d6000803e3d6000fd5b5050505050505050565b7f00000000000000000000000000000000000000000000000000000000000000006001600160a01b03166323b872dd8383846001600160a01b031663ced72f876040518163ffffffff1660e01b81526004016020604051808303816000875af115801561262e573d6000803e3d6000fd5b505050506040513d601f19601f820116820180604052508101906126529190613205565b6040517fffffffff0000000000000000000000000000000000000000000000000000000060e086901b1681526001600160a01b03938416600482015292909116602483015260448201526064016020604051808303816000875af11580156126be573d6000803e3d6000fd5b505050506040513d601f19601f82011682018060405250810190612280919061334c565b60408051426020820152439181018290529040606082015260009082906080016040516020818303038152906040528051906020012060001c6112a7919061336e565b6001600160a01b0380831660009081526004602090815260408083209385168352929052205460ff166127af576001600160a01b038083166000818152600460209081526040808320948616808452948252808320805460ff1916600190811790915593835260038252822080549384018155825290200180546001600160a01b03191690911790555b5050565b60006127c18686338a612526565b6127cb33886125bd565b6040517f6548aff00000000000000000000000000000000000000000000000000000000081526001600160a01b038781166004830152602482018790528581166044830152606482018590528381166084830152881690636548aff09060a4016020604051808303816000875af115801561284a573d6000803e3d6000fd5b505050506040513d601f19601f8201168201806040525081019061286e9190613205565b9050836001600160a01b0316866001600160a01b03167fdb587d878116df0bdd4fe154699aa2c5f439da001cc811dfd05d9f589fc5a8ee87866040516128be929190918252602082015260400190565b60405180910390a39695505050505050565b600080546001600160a01b038381166001600160a01b0319831681178455604051919092169283917f8be0079c531659141344cd1fd0a4f28419497f9722a3daafe3b4186f6b6457e09190a35050565b6001600160a01b0381168114610a7357600080fd5b60008060008060008060c0878903121561294e57600080fd5b863561295981612920565b9550602087013561296981612920565b9450604087013561297981612920565b9350606087013592506080870135915060a087013561299781612920565b809150509295509295509295565b634e487b7160e01b600052604160045260246000fd5b604051601f8201601f1916810167ffffffffffffffff811182821017156129e4576129e46129a5565b604052919050565b600067ffffffffffffffff821115612a0657612a066129a5565b5060051b60200190565b600082601f830112612a2157600080fd5b81356020612a36612a31836129ec565b6129bb565b8083825260208201915060208460051b870101935086841115612a5857600080fd5b602086015b848110156119d0578035612a7081612920565b8352918301918301612a5d565b600082601f830112612a8e57600080fd5b81356020612a9e612a31836129ec565b8083825260208201915060208460051b870101935086841115612ac057600080fd5b602086015b848110156119d05780358352918301918301612ac5565b60008060008060808587031215612af257600080fd5b843567ffffffffffffffff80821115612b0a57600080fd5b612b1688838901612a10565b95506020870135915080821115612b2c57600080fd5b612b3888838901612a7d565b94506040870135915080821115612b4e57600080fd5b50612b5b87828801612a7d565b9250506060850135612b6c81612920565b939692955090935050565b60008151808452602080850194506020840160005b83811015612ba857815187529582019590820190600101612b8c565b509495945050505050565b602081526000611f3d6020830184612b77565b600080600060608486031215612bdb57600080fd5b833567ffffffffffffffff811115612bf257600080fd5b612bfe86828701612a10565b935050602084013591506040840135612c1681612920565b809150509250925092565b600080600080600060808688031215612c3957600080fd5b8535612c4481612920565b94506020860135612c5481612920565b935060408601359250606086013567ffffffffffffffff80821115612c7857600080fd5b818801915088601f830112612c8c57600080fd5b813581811115612c9b57600080fd5b896020828501011115612cad57600080fd5b9699959850939650602001949392505050565b60008060408385031215612cd357600080fd5b8235612cde81612920565b91506020830135612cee81612920565b809150509250929050565b600060208284031215612d0b57600080fd5b8135611f3d81612920565b600080600080600060a08688031215612d2e57600080fd5b8535612d3981612920565b94506020860135612d4981612920565b93506040860135612d5981612920565b9250606086013567ffffffffffffffff811115612d7557600080fd5b612d8188828901612a7d565b9250506080860135612d9281612920565b809150509295509295909350565b60008060008060808587031215612db657600080fd5b843567ffffffffffffffff80821115612dce57600080fd5b612dda88838901612a10565b9550602087013594506040870135915080821115612b4e57600080fd5b600080600060608486031215612e0c57600080fd5b8335612e1781612920565b92506020840135612e2781612920565b91506040840135612c1681612920565b600080600080600060a08688031215612e4f57600080fd5b8535612e5a81612920565b94506020860135612e6a81612920565b93506040860135612e7a81612920565b9250606086013591506080860135612d9281612920565b600060208284031215612ea357600080fd5b5035919050565b6020808252825182820181905260009190848201906040850190845b81811015612eeb5783516001600160a01b031683529284019291840191600101612ec6565b50909695505050505050565b60008060008060008060c08789031215612f1057600080fd5b8635612f1b81612920565b9550602087013567ffffffffffffffff80821115612f3857600080fd5b612f448a838b01612a7d565b965060408901359150612f5682612920565b90945060608801359080821115612f6c57600080fd5b50612f7989828a01612a7d565b9350506080870135915060a087013561299781612920565b60008060008060008060c08789031215612faa57600080fd5b8635612fb581612920565b95506020870135612fc581612920565b94506040870135612fd581612920565b9350606087013567ffffffffffffffff80821115612ff257600080fd5b612ffe8a838b01612a7d565b9450608089013591508082111561301457600080fd5b5061302189828a01612a7d565b92505060a087013561299781612920565b60008060006060848603121561304757600080fd5b833567ffffffffffffffff8082111561305f57600080fd5b61306b87838801612a10565b9450602086013591508082111561308157600080fd5b5061308e86828701612a7d565b9250506040840135612c1681612920565b600080600080608085870312156130b557600080fd5b843567ffffffffffffffff8111156130cc57600080fd5b6130d887828801612a10565b94505060208501359250604085013591506060850135612b6c81612920565b6000806040838503121561310a57600080fd5b823561311581612920565b946020939093013593505050565b634e487b7160e01b600052601160045260246000fd5b818103818111156112a7576112a7613123565b634e487b7160e01b600052603260045260246000fd5b606080825284519082018190526000906020906080840190828801845b828110156131a45781516001600160a01b03168452928401929084019060010161317f565b50505083810360208501526131b98187612b77565b91505082810360408401526115168185612b77565b600080604083850312156131e157600080fd5b505080516020909101519092909150565b808201808211156112a7576112a7613123565b60006020828403121561321757600080fd5b5051919050565b6000806040838503121561323157600080fd5b8251915060208084015167ffffffffffffffff81111561325057600080fd5b8401601f8101861361326157600080fd5b805161326f612a31826129ec565b81815260059190911b8201830190838101908883111561328e57600080fd5b928401925b828410156132ac57835182529284019290840190613293565b80955050505050509250929050565b60006101206001600160a01b03808d1684528160208501526132df8285018d612b77565b9150808b16604085015283820360608501526132fb828b612b77565b988116608085015260a0840197909752505092841660c084015290831660e083015290911661010090910152949350505050565b60006020828403121561334157600080fd5b8151611f3d81612920565b60006020828403121561335e57600080fd5b81518015158114611f3d57600080fd5b60008261338b57634e487b7160e01b600052601260045260246000fd5b50069056fea2646970667358221220d52911a90dd445ec14548894571b90abb7290913bc7d0e51bd00916df3b0d17764736f6c63430008180033",
  "linkReferences": {},
  "deployedLinkReferences": {}
}