{
  "_format": "hh-sol-artifact-1",
  "contractName": "YardFactory",
  "sourceName": "src/contracts/YardFactory.sol",
  "abi": [
    {
      "anonymous": false,
      "inputs": [
        {
          "indexed": true,
          "internalType": "address",
          "name": "previousOwner",
          "type": "address"
        },
        {
          "indexed": true,
          "internalType": "address",
          "name": "newOwner",
          "type": "address"
        }
      ],
      "name": "OwnershipTransferStarted",
      "type": "event"
    },
    {
      "anonymous": false,
      "inputs": [
        {
          "indexed": true,
          "internalType": "address",
          "name": "previousOwner",
          "type": "address"
        },
        {
          "indexed": true,
          "internalType": "address",
          "name": "newOwner",
          "type": "address"
        }
      ],
      "name": "OwnershipTransferred",
      "type": "event"
    },
    {
      "anonymous": false,
      "inputs": [
        {
          "indexed": false,
          "internalType": "contract IERC721",
          "name": "nftA",
          "type": "address"
        },
        {
          "indexed": false,
          "internalType": "contract IERC721",
          "name": "nftB",
          "type": "address"
        },
        {
          "indexed": true,
          "internalType": "address",
          "name": "pair",
          "type": "address"
        }
      ],
      "name": "PairCreated",
      "type": "event"
    },
    {
      "inputs": [],
      "name": "ROUTER",
      "outputs": [
        {
          "internalType": "address",
          "name": "",
          "type": "address"
        }
      ],
      "stateMutability": "view",
      "type": "function"
    },
    {
      "inputs": [],
      "name": "YARD_WRAPPER",
      "outputs": [
        {
          "internalType": "address",
          "name": "",
          "type": "address"
        }
      ],
      "stateMutability": "view",
      "type": "function"
    },
    {
      "inputs": [],
      "name": "acceptOwnership",
      "outputs": [],
      "stateMutability": "nonpayable",
      "type": "function"
    },
    {
      "inputs": [
        {
          "internalType": "contract IERC721",
          "name": "nftA",
          "type": "address"
        },
        {
          "internalType": "uint256[]",
          "name": "idsA",
          "type": "uint256[]"
        },
        {
          "internalType": "contract IERC721",
          "name": "nftB",
          "type": "address"
        },
        {
          "internalType": "uint256[]",
          "name": "idsB",
          "type": "uint256[]"
        },
        {
          "internalType": "address",
          "name": "_pairOwner",
          "type": "address"
        },
        {
          "internalType": "uint256",
          "name": "_fee",
          "type": "uint256"
        },
        {
          "internalType": "address",
          "name": "_feeToken",
          "type": "address"
        },
        {
          "internalType": "address",
          "name": "_yardWrapper",
          "type": "address"
        },
        {
          "internalType": "address",
          "name": "_to",
          "type": "address"
        }
      ],
      "name": "createPair",
      "outputs": [
        {
          "internalType": "address",
          "name": "pair",
          "type": "address"
        }
      ],
      "stateMutability": "nonpayable",
      "type": "function"
    },
    {
      "inputs": [
        {
          "internalType": "contract IERC721",
          "name": "nftA",
          "type": "address"
        },
        {
          "internalType": "contract IERC721",
          "name": "nftB",
          "type": "address"
        }
      ],
      "name": "getPair",
      "outputs": [
        {
          "internalType": "address",
          "name": "pair",
          "type": "address"
        }
      ],
      "stateMutability": "view",
      "type": "function"
    },
    {
      "inputs": [
        {
          "internalType": "address",
          "name": "",
          "type": "address"
        },
        {
          "internalType": "address",
          "name": "",
          "type": "address"
        },
        {
          "internalType": "uint256",
          "name": "",
          "type": "uint256"
        },
        {
          "internalType": "bytes",
          "name": "",
          "type": "bytes"
        }
      ],
      "name": "onERC721Received",
      "outputs": [
        {
          "internalType": "bytes4",
          "name": "",
          "type": "bytes4"
        }
      ],
      "stateMutability": "pure",
      "type": "function"
    },
    {
      "inputs": [],
      "name": "owner",
      "outputs": [
        {
          "internalType": "address",
          "name": "",
          "type": "address"
        }
      ],
      "stateMutability": "view",
      "type": "function"
    },
    {
      "inputs": [],
      "name": "pendingOwner",
      "outputs": [
        {
          "internalType": "address",
          "name": "",
          "type": "address"
        }
      ],
      "stateMutability": "view",
      "type": "function"
    },
    {
      "inputs": [],
      "name": "poolCount",
      "outputs": [
        {
          "internalType": "uint256",
          "name": "",
          "type": "uint256"
        }
      ],
      "stateMutability": "view",
      "type": "function"
    },
    {
      "inputs": [],
      "name": "renounceOwnership",
      "outputs": [],
      "stateMutability": "nonpayable",
      "type": "function"
    },
    {
      "inputs": [
        {
          "internalType": "address",
          "name": "router",
          "type": "address"
        }
      ],
      "name": "setRouter",
      "outputs": [],
      "stateMutability": "nonpayable",
      "type": "function"
    },
    {
      "inputs": [
        {
          "internalType": "address",
          "name": "wrapper",
          "type": "address"
        }
      ],
      "name": "setWrapper",
      "outputs": [],
      "stateMutability": "nonpayable",
      "type": "function"
    },
    {
      "inputs": [
        {
          "internalType": "address",
          "name": "newOwner",
          "type": "address"
        }
      ],
      "name": "transferOwnership",
      "outputs": [],
      "stateMutability": "nonpayable",
      "type": "function"
    }
  ],
  "bytecode": "0x608060405234801561001057600080fd5b5061001a3361001f565b61008b565b600180546001600160a01b03191690556100388161003b565b50565b600080546001600160a01b038381166001600160a01b0319831681178455604051919092169283917f8be0079c531659141344cd1fd0a4f28419497f9722a3daafe3b4186f6b6457e09190a35050565b61371e8061009a6000396000f3fe60806040523480156200001157600080fd5b5060043610620000f15760003560e01c8063b50232361162000097578063e30c3978116200006e578063e30c397814620001fd578063e6a43905146200020f578063f2fde38b146200024a578063f525cb68146200026157600080fd5b8063b502323614620001bb578063c0d7865514620001cf578063c2167d9314620001e657600080fd5b8063715018a611620000cc578063715018a6146200019357806379ba5097146200019f5780638da5cb5b14620001a957600080fd5b8063129ccb5d14620000f6578063150b7a02146200012a57806332fe7b26146200017f575b600080fd5b6200010d6200010736600462000ca9565b6200027a565b6040516001600160a01b0390911681526020015b60405180910390f35b620001656200013b36600462000d94565b7f150b7a020000000000000000000000000000000000000000000000000000000095945050505050565b6040516001600160e01b0319909116815260200162000121565b6002546200010d906001600160a01b031681565b6200019d62000563565b005b6200019d6200057b565b6000546001600160a01b03166200010d565b6003546200010d906001600160a01b031681565b6200019d620001e036600462000e3c565b6200060d565b6200019d620001f736600462000e3c565b62000696565b6001546001600160a01b03166200010d565b6200010d6200022036600462000e63565b6001600160a01b039182166000908152600560209081526040808320938516835292905220541690565b6200019d6200025b36600462000e3c565b6200071a565b6200026b60045481565b60405190815260200162000121565b6002546000906001600160a01b03163314620002dd5760405162461bcd60e51b815260206004820152601a60248201527f594152443a204f4e4c595f524f555445525f43414e5f43414c4c00000000000060448201526064015b60405180910390fd5b876001600160a01b03168a6001600160a01b031603620003405760405162461bcd60e51b815260206004820152601760248201527f594152443a204e4654535f4152455f5448455f53414d450000000000000000006044820152606401620002d4565b506001600160a01b0389811660009081526005602090815260408083208b851684529091529020541680156200038757620003818a8a8a8a8a86886200078e565b62000556565b8988600260009054906101000a90046001600160a01b03163089898989604051620003b29062000bb5565b6001600160a01b039889168152968816602088015294871660408701529286166060860152908516608085015260a0840152831660c083015290911660e082015261010001604051809103906000f08015801562000414573d6000803e3d6000fd5b506003546040517fc2b7bbb60000000000000000000000000000000000000000000000000000000081526001600160a01b03808416600483015292935091169063c2b7bbb690602401600060405180830381600087803b1580156200047857600080fd5b505af11580156200048d573d6000803e3d6000fd5b50505050620004a28a8a8a8a8a86886200078e565b6001600160a01b03808b1660008181526005602081815260408084208e87168552825280842080549688166001600160a01b031997881681179091559282528084209484529390529181208054909316909117909155600480549091906200050a9062000ea1565b90915550604080516001600160a01b038c811682528a811660208301528316917fa92a2b95c8d8436f6ac4c673c61487364f877efb9534d4296fad8ef904546c94910160405180910390a25b9998505050505050505050565b6200056d62000af4565b62000579600062000b50565b565b60015433906001600160a01b03168114620005ff5760405162461bcd60e51b815260206004820152602960248201527f4f776e61626c6532537465703a2063616c6c6572206973206e6f74207468652060448201527f6e6577206f776e657200000000000000000000000000000000000000000000006064820152608401620002d4565b6200060a8162000b50565b50565b6200061762000af4565b6001600160a01b0381166200066f5760405162461bcd60e51b815260206004820152601c60248201527f594152443a20524f555445525f49535f5a45524f5f41444452455353000000006044820152606401620002d4565b600280546001600160a01b0319166001600160a01b0383161790556200060a600062000b50565b620006a062000af4565b6001600160a01b038116620006f85760405162461bcd60e51b815260206004820152601c60248201527f594152443a20524f555445525f49535f5a45524f5f41444452455353000000006044820152606401620002d4565b600380546001600160a01b0319166001600160a01b0392909216919091179055565b6200072462000af4565b600180546001600160a01b0383166001600160a01b03199091168117909155620007566000546001600160a01b031690565b6001600160a01b03167f38d16b8cac22d99fc7c124b9cd0de2d3fa1faef420bfe791d8c362d765e2270060405160405180910390a350565b8551600003620007e15760405162461bcd60e51b815260206004820152601160248201527f594152443a205a45524f5f4c454e4754480000000000000000000000000000006044820152606401620002d4565b8351865114620008345760405162461bcd60e51b815260206004820152601560248201527f594152443a204c454e4754485f4d49534d4154434800000000000000000000006044820152606401620002d4565b60005b865181101562000aea57876001600160a01b03166342842e0e30858a858151811062000867576200086762000ec9565b60209081029190910101516040516001600160e01b031960e086901b1681526001600160a01b0393841660048201529290911660248301526044820152606401600060405180830381600087803b158015620008c257600080fd5b505af1158015620008d7573d6000803e3d6000fd5b50505050856001600160a01b03166342842e0e308588858151811062000901576200090162000ec9565b60209081029190910101516040516001600160e01b031960e086901b1681526001600160a01b0393841660048201529290911660248301526044820152606401600060405180830381600087803b1580156200095c57600080fd5b505af115801562000971573d6000803e3d6000fd5b50505050826001600160a01b0316634272870a898984815181106200099a576200099a62000ec9565b60209081029190910101516040516001600160e01b031960e085901b1681526001600160a01b0392831660048201526024810191909152818816604482015290851660648201526084016020604051808303816000875af115801562000a04573d6000803e3d6000fd5b505050506040513d601f19601f8201168201806040525081019062000a2a919062000edf565b50826001600160a01b0316634272870a8787848151811062000a505762000a5062000ec9565b60209081029190910101516040516001600160e01b031960e085901b1681526001600160a01b0392831660048201526024810191909152818816604482015290851660648201526084016020604051808303816000875af115801562000aba573d6000803e3d6000fd5b505050506040513d601f19601f8201168201806040525081019062000ae0919062000edf565b5060010162000837565b5050505050505050565b6000546001600160a01b03163314620005795760405162461bcd60e51b815260206004820181905260248201527f4f776e61626c653a2063616c6c6572206973206e6f7420746865206f776e65726044820152606401620002d4565b600180546001600160a01b03191690556200060a81600080546001600160a01b038381166001600160a01b0319831681178455604051919092169283917f8be0079c531659141344cd1fd0a4f28419497f9722a3daafe3b4186f6b6457e09190a35050565b6127ef8062000efa83390190565b6001600160a01b03811681146200060a57600080fd5b803562000be68162000bc3565b919050565b634e487b7160e01b600052604160045260246000fd5b600082601f83011262000c1357600080fd5b8135602067ffffffffffffffff8083111562000c335762000c3362000beb565b8260051b604051601f19603f8301168101818110848211171562000c5b5762000c5b62000beb565b604052938452602081870181019490810192508785111562000c7c57600080fd5b6020870191505b8482101562000c9e5781358352918301919083019062000c83565b979650505050505050565b60008060008060008060008060006101208a8c03121562000cc957600080fd5b893562000cd68162000bc3565b985060208a013567ffffffffffffffff8082111562000cf457600080fd5b62000d028d838e0162000c01565b995060408c0135915062000d168262000bc3565b90975060608b0135908082111562000d2d57600080fd5b5062000d3c8c828d0162000c01565b96505062000d4d60808b0162000bd9565b945060a08a0135935062000d6460c08b0162000bd9565b925062000d7460e08b0162000bd9565b915062000d856101008b0162000bd9565b90509295985092959850929598565b60008060008060006080868803121562000dad57600080fd5b853562000dba8162000bc3565b9450602086013562000dcc8162000bc3565b935060408601359250606086013567ffffffffffffffff8082111562000df157600080fd5b818801915088601f83011262000e0657600080fd5b81358181111562000e1657600080fd5b89602082850101111562000e2957600080fd5b9699959850939650602001949392505050565b60006020828403121562000e4f57600080fd5b813562000e5c8162000bc3565b9392505050565b6000806040838503121562000e7757600080fd5b823562000e848162000bc3565b9150602083013562000e968162000bc3565b809150509250929050565b60006001820162000ec257634e487b7160e01b600052601160045260246000fd5b5060010190565b634e487b7160e01b600052603260045260246000fd5b60006020828403121562000ef257600080fd5b505191905056fe60a06040523480156200001157600080fd5b50604051620027ef380380620027ef833981016040819052620000349162000252565b83836200004133620000f9565b6200004c82620000f9565b620000578162000117565b5050600880546001600160a01b038089166001600160a01b03199283161790925560078054888416908316179055600980548584169083161790558282166080819052600a805490921617905587811690891611620000b8578688620000bb565b87875b600c80546001600160a01b039283166001600160a01b031991821617909155600b805493909216921691909117905550620003079650505050505050565b600180546001600160a01b03191690556200011481620001c2565b50565b620001228162000212565b620001735760405162461bcd60e51b815260206004820152601c60248201527f594152443a204645455f49535f4e4f545f302e315f302e335f302e3500000000604482015260640160405180910390fd5b6005805460ff19169055600280549082905560408051828152602081018490527f528d9479e9f9889a87a3c30c7f7ba537e5e59c4c85a37733b16e57c62df61302910160405180910390a15050565b600080546001600160a01b038381166001600160a01b0319831681178455604051919092169283917f8be0079c531659141344cd1fd0a4f28419497f9722a3daafe3b4186f6b6457e09190a35050565b6000620186a0821480620002285750620493e082145b806200023657506207a12082145b92915050565b6001600160a01b03811681146200011457600080fd5b600080600080600080600080610100898b0312156200027057600080fd5b88516200027d816200023c565b60208a015190985062000290816200023c565b60408a0151909750620002a3816200023c565b60608a0151909650620002b6816200023c565b60808a0151909550620002c9816200023c565b60a08a015160c08b01519195509350620002e3816200023c565b60e08a0151909250620002f6816200023c565b809150509295985092959890939650565b6080516124cf62000320600039600050506124cf6000f3fe608060405234801561001057600080fd5b50600436106101985760003560e01c80638da5cb5b116100e3578063c5b0e8121161008c578063e30c397811610066578063e30c3978146103b6578063ef5cfb8c146103c7578063f2fde38b146103da57600080fd5b8063c5b0e8121461037b578063cb13cddb1461038e578063ced72f87146103ae57600080fd5b8063acd731e6116100bd578063acd731e61461033f578063bf27bb8914610352578063bfa5e13c1461037257600080fd5b80638da5cb5b146102e4578063984afcb814610309578063ac40876a1461032c57600080fd5b806354cf2aeb116101455780636aa701bf1161011f5780636aa701bf146102b9578063715018a6146102d457806379ba5097146102dc57600080fd5b806354cf2aeb1461028a57806364ab8675146102935780636548aff0146102a657600080fd5b80634272870a116101765780634272870a1461024d57806348cc5d751461026057806348ef083b1461026a57600080fd5b8063150b7a021461019d57806322660a681461020b57806322d98d3f1461022c575b600080fd5b6101d56101ab366004612141565b7f150b7a020000000000000000000000000000000000000000000000000000000095945050505050565b6040517fffffffff0000000000000000000000000000000000000000000000000000000090911681526020015b60405180910390f35b61021e6102193660046121e0565b6103ed565b604051908152602001610202565b61023f61023a36600461223f565b610b48565b604051610202929190612263565b61021e61025b3660046122b3565b610c30565b61026861105a565b005b61021e61027836600461223f565b60196020526000908152604090205481565b61021e60025481565b61021e6102a136600461223f565b611070565b61021e6102b4366004612306565b61109a565b600d54600e5460408051928352602083019190915201610202565b6102686114dd565b6102686114ef565b6000546001600160a01b03165b6040516001600160a01b039091168152602001610202565b61031c610317366004612357565b61157d565b6040519015158152602001610202565b61026861033a366004612357565b6115a1565b600c546102f1906001600160a01b031681565b61021e61036036600461223f565b601a6020526000908152604090205481565b61021e60065481565b600b546102f1906001600160a01b031681565b61021e61039c36600461223f565b60176020526000908152604090205481565b61021e6116e0565b6001546001600160a01b03166102f1565b61021e6103d536600461223f565b61171c565b6102686103e836600461223f565b6119d3565b601c5460009060ff16156104485760405162461bcd60e51b815260206004820152601860248201527f594152443a205452414e53414354494f4e5f4c4f434b4544000000000000000060448201526064015b60405180910390fd5b601c805460ff19166001179055600854336001600160a01b03909116146104b15760405162461bcd60e51b815260206004820152601160248201527f594152443a204f4e4c595f524f55544552000000000000000000000000000000604482015260640161043f565b600b546001600160a01b038781169116148015906104dd5750600c546001600160a01b03878116911614155b1561052a5760405162461bcd60e51b815260206004820152601260248201527f594152443a204e4f4e5f504f4f4c5f4e46540000000000000000000000000000604482015260640161043f565b6001600160a01b0383166000908152601a602052604090205442906105539062278d0090612386565b11156105b05760405162461bcd60e51b815260206004820152602660248201527f594152443a20494e56414c49445f4c49515549444954595f52454d4f56414c5f6044820152651411549253d160d21b606482015260840161043f565b6001600160a01b038681166000908152601b602090815260408083208984529091529020548116908416146106275760405162461bcd60e51b815260206004820152601b60248201527f594152443a204e4f545f50524f56494445445f42595f4f574e45520000000000604482015260640161043f565b6000848152601460205260409020546001600160a01b038781169116146106905760405162461bcd60e51b815260206004820152601c60248201527f594152443a20575241505045445f544f4b454e5f4d49534d4154434800000000604482015260640161043f565b60008481526015602090815260408083206001600160a01b038a16845290915290205485146107015760405162461bcd60e51b815260206004820152601860248201527f594152443a204e4f545f554e4445524c59494e475f4e46540000000000000000604482015260640161043f565b6001600160a01b0382166107575760405162461bcd60e51b815260206004820152601d60248201527f594152443a2053454e44494e475f544f5f5a45524f5f41444452455353000000604482015260640161043f565b600a546040517f73962b26000000000000000000000000000000000000000000000000000000008152600481018690526001600160a01b03909116906373962b2690602401602060405180830381865afa1580156107b9573d6000803e3d6000fd5b505050506040513d601f19601f820116820180604052508101906107dd9190612399565b1561082a5760405162461bcd60e51b815260206004820152601a60248201527f594152443a204e46545f414c52454144595f52454c4541534544000000000000604482015260640161043f565b60006108366001611a44565b6001600160a01b038516600090815260176020526040812080549293509161085d906123bb565b90915550600f8054600090610871906123bb565b90915550600085815260146020908152604080832080546001600160a01b0319908116909155601583528184206001600160a01b038c1685528352818420849055601b83528184208a8552909252822080549091169055600680548392906108da908490612386565b90915550506001600160a01b038716600090815260166020908152604080832089845290915290205460ff1615610a0b576109158787611aea565b600a546040517fde0e9a3e000000000000000000000000000000000000000000000000000000008152600481018790526001600160a01b039091169063de0e9a3e906024016020604051808303816000875af1158015610979573d6000803e3d6000fd5b505050506040513d601f19601f8201168201806040525081019061099d9190612399565b50604051632142170760e11b81523060048201526001600160a01b038481166024830152604482018890528816906342842e0e90606401600060405180830381600087803b1580156109ee57600080fd5b505af1158015610a02573d6000803e3d6000fd5b50505050610a83565b600a546040517f37bdc99b000000000000000000000000000000000000000000000000000000008152600481018790526001600160a01b03909116906337bdc99b90602401600060405180830381600087803b158015610a6a57600080fd5b505af1158015610a7e573d6000803e3d6000fd5b505050505b60095460405163a9059cbb60e01b81526001600160a01b038581166004830152602482018490529091169063a9059cbb906044016020604051808303816000875af1158015610ad6573d6000803e3d6000fd5b505050506040513d601f19601f82011682018060405250810190610afa9190612399565b5060405186925082906001600160a01b038916907fc2c3f06e49b9f15e7b4af9055e183b0d73362e033ad82a07dec9bf984017171990600090a350601c805460ff1916905595945050505050565b600b54600090606090829082906001600160a01b0390811690861603610bbc57600d546010805460408051602080840282018101909252828152939550830182828015610bb457602002820191906000526020600020905b815481526020019060010190808311610ba0575b505050505090505b600c546001600160a01b0390811690861603610c2657600e546011805460408051602080840282018101909252828152939550830182828015610c1e57602002820191906000526020600020905b815481526020019060010190808311610c0a575b505050505090505b9094909350915050565b6007546000906001600160a01b03163314801590610c5957506008546001600160a01b03163314155b15610ca65760405162461bcd60e51b815260206004820152601c60248201527f594152443a204f4e4c595f464143544f52595f4f525f524f5554455200000000604482015260640161043f565b600b546001600160a01b03868116911614801590610cd25750600c546001600160a01b03868116911614155b15610d1f5760405162461bcd60e51b815260206004820152601260248201527f594152443a204e4f4e5f504f4f4c5f4e46540000000000000000000000000000604482015260640161043f565b6040516331a9108f60e11b81526004810185905230906001600160a01b03871690636352211e90602401602060405180830381865afa158015610d66573d6000803e3d6000fd5b505050506040513d601f19601f82011682018060405250810190610d8a91906123d2565b6001600160a01b031614610de05760405162461bcd60e51b815260206004820152601660248201527f594152443a204e46545f4e4f545f524543454956454400000000000000000000604482015260640161043f565b6001600160a01b038516600090815260166020908152604080832087845290915290205460ff1615610e545760405162461bcd60e51b815260206004820152601160248201527f594152443a204e46545f494e5f504f4f4c000000000000000000000000000000604482015260640161043f565b6001600160a01b038216610eaa5760405162461bcd60e51b815260206004820152601a60248201527f594152443a20575241505f544f5f5a45524f5f41444452455353000000000000604482015260640161043f565b600f60008154610eb9906123ef565b909155506001600160a01b03831660009081526017602052604081208054909190610ee3906123ef565b909155506001600160a01b03831660009081526018602052604081208054909190610f0d906123ef565b90915550610f1b8585611c9f565b6001600160a01b038381166000908152601a602052604090819020429055600a5490517f5c15155e0000000000000000000000000000000000000000000000000000000081528783166004820152602481018790528483166044820152911690635c15155e906064016020604051808303816000875af1158015610fa3573d6000803e3d6000fd5b505050506040513d601f19601f82011682018060405250810190610fc79190612408565b600081815260146020908152604080832080546001600160a01b03199081166001600160a01b038c81169182179093556015855283862081875285528386208b9055601b85528386208b8752909452828520805490911691891691909117905551929350869290917fc17cea59c2955cb181b03393209566960365771dbba9dc3d510180e7cb31208891a3949350505050565b611062611e0b565b61106e620186a06115a1565b565b6001600160a01b038116600090815260176020526040812054611094908390611e65565b92915050565b601c5460009060ff16156110f05760405162461bcd60e51b815260206004820152601860248201527f594152443a205452414e53414354494f4e5f4c4f434b45440000000000000000604482015260640161043f565b601c805460ff19166001179055600854336001600160a01b03909116146111595760405162461bcd60e51b815260206004820152601160248201527f594152443a204f4e4c595f524f55544552000000000000000000000000000000604482015260640161043f565b6040516331a9108f60e11b81526004810186905230906001600160a01b03881690636352211e90602401602060405180830381865afa1580156111a0573d6000803e3d6000fd5b505050506040513d601f19601f820116820180604052508101906111c491906123d2565b6001600160a01b03161461121a5760405162461bcd60e51b815260206004820152601e60248201527f594152443a204e46545f494e5f4e4f545f4f574e45445f42595f504f4f4c0000604482015260640161043f565b600061122585610b48565b509050806000036112785760405162461bcd60e51b815260206004820152601460248201527f594152443a205a45524f5f4c4951554944495459000000000000000000000000604482015260640161043f565b6001600160a01b038516600090815260166020908152604080832087845290915290205460ff166112eb5760405162461bcd60e51b815260206004820152601560248201527f594152443a204e46545f4e4f545f494e5f504f4f4c0000000000000000000000604482015260640161043f565b6040516331a9108f60e11b81526004810185905230906001600160a01b03871690636352211e90602401602060405180830381865afa158015611332573d6000803e3d6000fd5b505050506040513d601f19601f8201168201806040525081019061135691906123d2565b6001600160a01b0316146113ac5760405162461bcd60e51b815260206004820152601f60248201527f594152443a204e46545f4f55545f4e4f545f4f574e45445f42595f504f4f4c00604482015260640161043f565b6001600160a01b0383166114025760405162461bcd60e51b815260206004820152601260248201527f594152443a205a45524f5f414444524553530000000000000000000000000000604482015260640161043f565b61140c8585611aea565b6114168787611c9f565b604051632142170760e11b81523060048201526001600160a01b038481166024830152604482018690528616906342842e0e90606401600060405180830381600087803b15801561146657600080fd5b505af115801561147a573d6000803e3d6000fd5b505060408051898152602081018890528795506001600160a01b03808a1694508b1692507fdb587d878116df0bdd4fe154699aa2c5f439da001cc811dfd05d9f589fc5a8ee910160405180910390a350601c805460ff1916905595945050505050565b6114e5611e0b565b61106e6000611f3e565b60015433906001600160a01b031681146115715760405162461bcd60e51b815260206004820152602960248201527f4f776e61626c6532537465703a2063616c6c6572206973206e6f74207468652060448201527f6e6577206f776e65720000000000000000000000000000000000000000000000606482015260840161043f565b61157a81611f3e565b50565b6000620186a08214806115925750620493e082145b806110945750506207a1201490565b6115a9611e0b565b60055460ff1680156115cb575062093a80600454426115c89190612421565b10155b156115db576115db600354611f57565b60055460ff161561162e5760405162461bcd60e51b815260206004820152601960248201527f594152443a204645455f4348414e47455f494e5f515545554500000000000000604482015260640161043f565b6116378161157d565b6116835760405162461bcd60e51b815260206004820152601c60248201527f594152443a204645455f49535f4e4f545f302e315f302e335f302e3500000000604482015260640161043f565b6005805460ff191660011790556003819055426004556002546040517fe81e4b9d142d35939bd342374676e007019ea0c5cf310856dad8ea052227f560916116d5918490918252602082015260400190565b60405180910390a150565b60055460009060ff168015611705575062093a80600454426117029190612421565b10155b1561171557611715600354611f57565b5060025490565b601c5460009060ff16156117725760405162461bcd60e51b815260206004820152601860248201527f594152443a205452414e53414354494f4e5f4c4f434b45440000000000000000604482015260640161043f565b601c805460ff191660011790556001600160a01b0382166117d55760405162461bcd60e51b815260206004820152601b60248201527f594152443a20434c41494d5f42595f5a45524f5f414444524553530000000000604482015260640161043f565b6001600160a01b0382166000908152601a6020526040812054900361183c5760405162461bcd60e51b815260206004820152601c60248201527f594152443a204c49515549444954595f4e4f545f50524f564944454400000000604482015260640161043f565b6001600160a01b0382166000908152601a602052604090205442906118659062278d0090612386565b11156118c25760405162461bcd60e51b815260206004820152602660248201527f594152443a20494e56414c49445f4c49515549444954595f52454d4f56414c5f6044820152651411549253d160d21b606482015260840161043f565b6118cb82611070565b6001600160a01b0383166000908152601960205260408120805492935083929091906118f8908490612386565b9250508190555080600660008282546119119190612386565b909155505060095460405163a9059cbb60e01b81526001600160a01b038481166004830152602482018490529091169063a9059cbb906044016020604051808303816000875af1158015611969573d6000803e3d6000fd5b505050506040513d601f19601f8201168201806040525081019061198d9190612399565b5060405181906001600160a01b038416907f106f923f993c2149d49b4255ff723acafa1f2d94393f561d3eda32ae348f724190600090a3601c805460ff19169055919050565b6119db611e0b565b600180546001600160a01b0383166001600160a01b03199091168117909155611a0c6000546001600160a01b031690565b6001600160a01b03167f38d16b8cac22d99fc7c124b9cd0de2d3fa1faef420bfe791d8c362d765e2270060405160405180910390a350565b6009546040516370a0823160e01b815230600482015260009182916001600160a01b03909116906370a0823190602401602060405180830381865afa158015611a91573d6000803e3d6000fd5b505050506040513d601f19601f82011682018060405250810190611ab59190612408565b90506000611ac38285612434565b600f549091508015611ade57611ad9818361244b565b611ae1565b60005b95945050505050565b6001600160a01b0380831660008181526016602090815260408083208684528252808320805460ff1916905583835260138252808320868452909152902054600b549092169003611bac576010805460009190611b4990600190612421565b81548110611b5957611b5961246d565b90600052602060002001549050611b71601083611ffb565b8054611b7f916010916120c7565b50600b546001600160a01b0316600090815260136020908152604080832093835292905220819055611c1f565b6011805460009190611bc090600190612421565b81548110611bd057611bd061246d565b90600052602060002001549050611be8601183611ffb565b8054611bf6916011916120c7565b50600c546001600160a01b03166000908152601360209081526040808320938352929052208190555b6001600160a01b0380841660008181526013602090815260408083208784528252808320839055838352601282528083208784529091529020805460ff19169055600b5490911614611c8457600e60008154611c7a906123bb565b9182905550611c99565b600d60008154611c93906123bb565b91829055505b50505050565b600b546001600160a01b03838116911614611ccd57600e60008154611cc3906123ef565b9182905550611ce2565b600d60008154611cdc906123ef565b91829055505b506001600160a01b03828116600081815260126020908152604080832086845282528083208054600160ff19918216811790925585855260168452828520888652909352922080549091169091179055600b5490911614611d7757601180546001810182556000919091527f31ecc21a745e3968a04e9570e4425bc18fa8019c68028196b546d1669c200c6801819055611dad565b601080546001810182556000919091527f1b6847dc741a1b0cd08d278845f9d819d87b734759afb55fe2de5cb82a9ae672018190555b600b546001600160a01b03838116911614611dd657601154611dd190600190612421565b611de5565b601054611de590600190612421565b6001600160a01b0390921660009081526013602090815260408083209383529290522055565b6000546001600160a01b0316331461106e5760405162461bcd60e51b815260206004820181905260248201527f4f776e61626c653a2063616c6c6572206973206e6f7420746865206f776e6572604482015260640161043f565b6006546009546040516370a0823160e01b8152306004820152600092839290916001600160a01b03909116906370a0823190602401602060405180830381865afa158015611eb7573d6000803e3d6000fd5b505050506040513d601f19601f82011682018060405250810190611edb9190612408565b611ee59190612386565b90506000611ef38285612434565b600f549091508015611f31576001600160a01b038616600090815260196020526040902054611f22828461244b565b611f2c9190612421565b611f34565b60005b9695505050505050565b600180546001600160a01b031916905561157a81612077565b611f608161157d565b611fac5760405162461bcd60e51b815260206004820152601c60248201527f594152443a204645455f49535f4e4f545f302e315f302e335f302e3500000000604482015260640161043f565b6005805460ff19169055600280549082905560408051828152602081018490527f528d9479e9f9889a87a3c30c7f7ba537e5e59c4c85a37733b16e57c62df61302910160405180910390a15050565b81546000908361200c600183612421565b8154811061201c5761201c61246d565b90600052602060002001548484815481106120395761203961246d565b90600052602060002001819055508380548061205757612057612483565b600190038181906000526020600020016000905590558391505092915050565b600080546001600160a01b038381166001600160a01b0319831681178455604051919092169283917f8be0079c531659141344cd1fd0a4f28419497f9722a3daafe3b4186f6b6457e09190a35050565b8280548282559060005260206000209081019282156121075760005260206000209182015b828111156121075782548255916001019190600101906120ec565b50612113929150612117565b5090565b5b808211156121135760008155600101612118565b6001600160a01b038116811461157a57600080fd5b60008060008060006080868803121561215957600080fd5b85356121648161212c565b945060208601356121748161212c565b935060408601359250606086013567ffffffffffffffff8082111561219857600080fd5b818801915088601f8301126121ac57600080fd5b8135818111156121bb57600080fd5b8960208285010111156121cd57600080fd5b9699959850939650602001949392505050565b600080600080600060a086880312156121f857600080fd5b85356122038161212c565b9450602086013593506040860135925060608601356122218161212c565b915060808601356122318161212c565b809150509295509295909350565b60006020828403121561225157600080fd5b813561225c8161212c565b9392505050565b60006040820184835260206040602085015281855180845260608601915060208701935060005b818110156122a65784518352938301939183019160010161228a565b5090979650505050505050565b600080600080608085870312156122c957600080fd5b84356122d48161212c565b93506020850135925060408501356122eb8161212c565b915060608501356122fb8161212c565b939692955090935050565b600080600080600060a0868803121561231e57600080fd5b85356123298161212c565b94506020860135935060408601356123408161212c565b92506060860135915060808601356122318161212c565b60006020828403121561236957600080fd5b5035919050565b634e487b7160e01b600052601160045260246000fd5b8082018082111561109457611094612370565b6000602082840312156123ab57600080fd5b8151801515811461225c57600080fd5b6000816123ca576123ca612370565b506000190190565b6000602082840312156123e457600080fd5b815161225c8161212c565b60006001820161240157612401612370565b5060010190565b60006020828403121561241a57600080fd5b5051919050565b8181038181111561109457611094612370565b808202811582820484141761109457611094612370565b60008261246857634e487b7160e01b600052601260045260246000fd5b500490565b634e487b7160e01b600052603260045260246000fd5b634e487b7160e01b600052603160045260246000fdfea26469706673582212204556165770e34ce6dc5be129aa9143ddb965b5442e364442d428f7d3f883da2564736f6c63430008180033a2646970667358221220f4e27a7cc95a8e01a58c118dd9d7f2fe3a2f1f858f9057555f5a08607ad7258c64736f6c63430008180033",
  "linkReferences": {},
  "deployedLinkReferences": {}
}